{
  "_format": "hh-sol-artifact-1",
  "contractName": "TipBot",
  "sourceName": "contracts/TipBot.sol",
  "abi": [
    {
      "anonymous": false,
      "inputs": [
        {
          "indexed": true,
          "internalType": "address",
          "name": "owner",
          "type": "address"
        },
        {
          "indexed": true,
          "internalType": "address",
          "name": "spender",
          "type": "address"
        },
        {
          "indexed": false,
          "internalType": "uint256",
          "name": "value",
          "type": "uint256"
        }
      ],
      "name": "Approval",
      "type": "event"
    },
    {
      "anonymous": false,
      "inputs": [
        {
          "indexed": true,
          "internalType": "address",
          "name": "depositor",
          "type": "address"
        },
        {
          "indexed": false,
          "internalType": "uint256",
          "name": "value",
          "type": "uint256"
        }
      ],
      "name": "Deposit",
      "type": "event"
    },
    {
      "anonymous": false,
      "inputs": [
        {
          "indexed": false,
          "internalType": "uint8",
          "name": "version",
          "type": "uint8"
        }
      ],
      "name": "Initialized",
      "type": "event"
    },
    {
      "anonymous": false,
      "inputs": [
        {
          "indexed": true,
          "internalType": "address",
          "name": "previousOwner",
          "type": "address"
        },
        {
          "indexed": true,
          "internalType": "address",
          "name": "newOwner",
          "type": "address"
        }
      ],
      "name": "OwnershipTransferred",
      "type": "event"
    },
    {
      "anonymous": false,
      "inputs": [
        {
          "indexed": true,
          "internalType": "address",
          "name": "from",
          "type": "address"
        },
        {
          "indexed": true,
          "internalType": "address",
          "name": "to",
          "type": "address"
        },
        {
          "indexed": false,
          "internalType": "uint256",
          "name": "amount",
          "type": "uint256"
        },
        {
          "indexed": false,
          "internalType": "uint256",
          "name": "feeAmount",
          "type": "uint256"
        }
      ],
      "name": "Tip",
      "type": "event"
    },
    {
      "anonymous": false,
      "inputs": [
        {
          "indexed": true,
          "internalType": "address",
          "name": "from",
          "type": "address"
        },
        {
          "indexed": true,
          "internalType": "address",
          "name": "to",
          "type": "address"
        },
        {
          "indexed": false,
          "internalType": "uint256",
          "name": "value",
          "type": "uint256"
        }
      ],
      "name": "Transfer",
      "type": "event"
    },
    {
      "anonymous": false,
      "inputs": [
        {
          "indexed": true,
          "internalType": "address",
          "name": "owner",
          "type": "address"
        },
        {
          "indexed": false,
          "internalType": "uint256",
          "name": "value",
          "type": "uint256"
        }
      ],
      "name": "Withdraw",
      "type": "event"
    },
    {
      "anonymous": false,
      "inputs": [
        {
          "indexed": true,
          "internalType": "address",
          "name": "owner",
          "type": "address"
        },
        {
          "indexed": false,
          "internalType": "uint256",
          "name": "feeAmount",
          "type": "uint256"
        }
      ],
      "name": "WithdrawFee",
      "type": "event"
    },
    {
      "inputs": [
        {
          "internalType": "address",
          "name": "owner",
          "type": "address"
        },
        {
          "internalType": "address",
          "name": "spender",
          "type": "address"
        }
      ],
      "name": "allowance",
      "outputs": [
        {
          "internalType": "uint256",
          "name": "",
          "type": "uint256"
        }
      ],
      "stateMutability": "view",
      "type": "function"
    },
    {
      "inputs": [
        {
          "internalType": "address",
          "name": "spender",
          "type": "address"
        },
        {
          "internalType": "uint256",
          "name": "amount",
          "type": "uint256"
        }
      ],
      "name": "approve",
      "outputs": [
        {
          "internalType": "bool",
          "name": "",
          "type": "bool"
        }
      ],
      "stateMutability": "nonpayable",
      "type": "function"
    },
    {
      "inputs": [
        {
          "internalType": "address",
          "name": "account",
          "type": "address"
        }
      ],
      "name": "balanceOf",
      "outputs": [
        {
          "internalType": "uint256",
          "name": "",
          "type": "uint256"
        }
      ],
      "stateMutability": "view",
      "type": "function"
    },
    {
      "inputs": [
        {
          "internalType": "uint256",
          "name": "amount",
          "type": "uint256"
        }
      ],
      "name": "burn",
      "outputs": [],
      "stateMutability": "nonpayable",
      "type": "function"
    },
    {
      "inputs": [
        {
          "internalType": "address",
          "name": "account",
          "type": "address"
        },
        {
          "internalType": "uint256",
          "name": "amount",
          "type": "uint256"
        }
      ],
      "name": "burnFrom",
      "outputs": [],
      "stateMutability": "nonpayable",
      "type": "function"
    },
    {
      "inputs": [],
      "name": "decimals",
      "outputs": [
        {
          "internalType": "uint8",
          "name": "",
          "type": "uint8"
        }
      ],
      "stateMutability": "view",
      "type": "function"
    },
    {
      "inputs": [
        {
          "internalType": "address",
          "name": "spender",
          "type": "address"
        },
        {
          "internalType": "uint256",
          "name": "subtractedValue",
          "type": "uint256"
        }
      ],
      "name": "decreaseAllowance",
      "outputs": [
        {
          "internalType": "bool",
          "name": "",
          "type": "bool"
        }
      ],
      "stateMutability": "nonpayable",
      "type": "function"
    },
    {
      "inputs": [],
      "name": "deposit",
      "outputs": [],
      "stateMutability": "payable",
      "type": "function"
    },
    {
      "inputs": [
        {
          "internalType": "address",
          "name": "",
          "type": "address"
        }
      ],
      "name": "depositedBalances",
      "outputs": [
        {
          "internalType": "uint256",
          "name": "",
          "type": "uint256"
        }
      ],
      "stateMutability": "view",
      "type": "function"
    },
    {
      "inputs": [],
      "name": "getContractBalance",
      "outputs": [
        {
          "internalType": "uint256",
          "name": "",
          "type": "uint256"
        }
      ],
      "stateMutability": "view",
      "type": "function"
    },
    {
      "inputs": [
        {
          "internalType": "address",
          "name": "depositor",
          "type": "address"
        }
      ],
      "name": "getDepositedBalance",
      "outputs": [
        {
          "internalType": "uint256",
          "name": "",
          "type": "uint256"
        }
      ],
      "stateMutability": "view",
      "type": "function"
    },
    {
      "inputs": [],
      "name": "getFeeBalance",
      "outputs": [
        {
          "internalType": "uint256",
          "name": "",
          "type": "uint256"
        }
      ],
      "stateMutability": "view",
      "type": "function"
    },
    {
      "inputs": [],
      "name": "getFeeProcent",
      "outputs": [
        {
          "internalType": "uint256",
          "name": "",
          "type": "uint256"
        }
      ],
      "stateMutability": "view",
      "type": "function"
    },
    {
      "inputs": [
        {
          "internalType": "address",
          "name": "spender",
          "type": "address"
        },
        {
          "internalType": "uint256",
          "name": "addedValue",
          "type": "uint256"
        }
      ],
      "name": "increaseAllowance",
      "outputs": [
        {
          "internalType": "bool",
          "name": "",
          "type": "bool"
        }
      ],
      "stateMutability": "nonpayable",
      "type": "function"
    },
    {
      "inputs": [],
      "name": "initialize",
      "outputs": [],
      "stateMutability": "nonpayable",
      "type": "function"
    },
    {
      "inputs": [
        {
          "internalType": "address",
          "name": "account",
          "type": "address"
        },
        {
          "internalType": "uint256",
          "name": "amount",
          "type": "uint256"
        }
      ],
      "name": "mint",
      "outputs": [],
      "stateMutability": "nonpayable",
      "type": "function"
    },
    {
      "inputs": [],
      "name": "name",
      "outputs": [
        {
          "internalType": "string",
          "name": "",
          "type": "string"
        }
      ],
      "stateMutability": "view",
      "type": "function"
    },
    {
      "inputs": [],
      "name": "owner",
      "outputs": [
        {
          "internalType": "address",
          "name": "",
          "type": "address"
        }
      ],
      "stateMutability": "view",
      "type": "function"
    },
    {
      "inputs": [],
      "name": "renounceOwnership",
      "outputs": [],
      "stateMutability": "nonpayable",
      "type": "function"
    },
    {
      "inputs": [
        {
          "internalType": "uint256",
          "name": "_fee",
          "type": "uint256"
        }
      ],
      "name": "setFee",
      "outputs": [],
      "stateMutability": "nonpayable",
      "type": "function"
    },
    {
      "inputs": [
        {
          "internalType": "address",
          "name": "_topUpAddress",
          "type": "address"
        }
      ],
      "name": "setTopUpAddress",
      "outputs": [],
      "stateMutability": "nonpayable",
      "type": "function"
    },
    {
      "inputs": [],
      "name": "symbol",
      "outputs": [
        {
          "internalType": "string",
          "name": "",
          "type": "string"
        }
      ],
      "stateMutability": "view",
      "type": "function"
    },
    {
      "inputs": [
        {
          "internalType": "address",
          "name": "to",
          "type": "address"
        },
        {
          "internalType": "uint256",
          "name": "amount",
          "type": "uint256"
        }
      ],
      "name": "tip",
      "outputs": [],
      "stateMutability": "nonpayable",
      "type": "function"
    },
    {
      "inputs": [
        {
          "internalType": "address",
          "name": "to",
          "type": "address"
        },
        {
          "internalType": "uint256",
          "name": "amount",
          "type": "uint256"
        }
      ],
      "name": "tipTopUp",
      "outputs": [],
      "stateMutability": "nonpayable",
      "type": "function"
    },
    {
      "inputs": [
        {
          "internalType": "uint256",
          "name": "amount",
          "type": "uint256"
        }
      ],
      "name": "topUp",
      "outputs": [],
      "stateMutability": "nonpayable",
      "type": "function"
    },
    {
      "inputs": [
        {
          "internalType": "address",
          "name": "to",
          "type": "address"
        },
        {
          "internalType": "uint256",
          "name": "amount",
          "type": "uint256"
        }
      ],
      "name": "topUpOwner",
      "outputs": [],
      "stateMutability": "nonpayable",
      "type": "function"
    },
    {
      "inputs": [],
      "name": "totalSupply",
      "outputs": [
        {
          "internalType": "uint256",
          "name": "",
          "type": "uint256"
        }
      ],
      "stateMutability": "view",
      "type": "function"
    },
    {
      "inputs": [
        {
          "internalType": "address",
          "name": "to",
          "type": "address"
        },
        {
          "internalType": "uint256",
          "name": "amount",
          "type": "uint256"
        }
      ],
      "name": "transfer",
      "outputs": [
        {
          "internalType": "bool",
          "name": "",
          "type": "bool"
        }
      ],
      "stateMutability": "nonpayable",
      "type": "function"
    },
    {
      "inputs": [
        {
          "internalType": "address",
          "name": "from",
          "type": "address"
        },
        {
          "internalType": "address",
          "name": "to",
          "type": "address"
        },
        {
          "internalType": "uint256",
          "name": "amount",
          "type": "uint256"
        }
      ],
      "name": "transferFrom",
      "outputs": [
        {
          "internalType": "bool",
          "name": "",
          "type": "bool"
        }
      ],
      "stateMutability": "nonpayable",
      "type": "function"
    },
    {
      "inputs": [
        {
          "internalType": "address",
          "name": "newOwner",
          "type": "address"
        }
      ],
      "name": "transferOwnership",
      "outputs": [],
      "stateMutability": "nonpayable",
      "type": "function"
    },
    {
      "inputs": [
        {
          "internalType": "uint256",
          "name": "amount",
          "type": "uint256"
        }
      ],
      "name": "withdraw",
      "outputs": [],
      "stateMutability": "nonpayable",
      "type": "function"
    },
    {
      "inputs": [
        {
          "internalType": "address",
          "name": "_to",
          "type": "address"
        }
      ],
      "name": "withdrawFee",
      "outputs": [],
      "stateMutability": "nonpayable",
      "type": "function"
    }
  ],
  "bytecode": "0x608060405234801561001057600080fd5b5061382f806100206000396000f3fe6080604052600436106101e35760003560e01c806370a082311161010257806395d89b4111610095578063d46e2a6d11610064578063d46e2a6d146106cf578063d4c30ceb146106f8578063dd62ed3e14610723578063f2fde38b14610760576101e3565b806395d89b4114610620578063a457c2d71461064b578063a9059cbb14610688578063d0e30db0146106c5576101e3565b80637d995311116100d15780637d995311146105785780638129fc1c146105b55780638b6fc452146105cc5780638da5cb5b146105f5576101e3565b806370a08231146104d0578063715018a61461050d578063751e58ce1461052457806379cc67901461054f576101e3565b80632e1a7d4d1161017a57806342966c681161014957806342966c681461042a57806350017f3e1461045357806369fe0e2d1461047c5780636f9fb98a146104a5576101e3565b80632e1a7d4d14610370578063313ce5671461039957806339509351146103c457806340c10f1914610401576101e3565b80631ac3ddeb116101b65780631ac3ddeb146102a45780631dd09ed8146102cd57806323b872dd146102f65780632a973daf14610333576101e3565b806306fdde03146101e8578063095ea7b314610213578063154440521461025057806318160ddd14610279575b600080fd5b3480156101f457600080fd5b506101fd610789565b60405161020a9190612555565b60405180910390f35b34801561021f57600080fd5b5061023a60048036038101906102359190612610565b61081b565b604051610247919061266b565b60405180910390f35b34801561025c57600080fd5b5061027760048036038101906102729190612610565b61083e565b005b34801561028557600080fd5b5061028e610b28565b60405161029b9190612695565b60405180910390f35b3480156102b057600080fd5b506102cb60048036038101906102c691906126b0565b610b32565b005b3480156102d957600080fd5b506102f460048036038101906102ef91906126b0565b610c1b565b005b34801561030257600080fd5b5061031d600480360381019061031891906126dd565b610c67565b60405161032a919061266b565b60405180910390f35b34801561033f57600080fd5b5061035a600480360381019061035591906126b0565b610c96565b6040516103679190612695565b60405180910390f35b34801561037c57600080fd5b5061039760048036038101906103929190612730565b610cdf565b005b3480156103a557600080fd5b506103ae610e05565b6040516103bb9190612779565b60405180910390f35b3480156103d057600080fd5b506103eb60048036038101906103e69190612610565b610e0e565b6040516103f8919061266b565b60405180910390f35b34801561040d57600080fd5b5061042860048036038101906104239190612610565b610e45565b005b34801561043657600080fd5b50610451600480360381019061044c9190612730565b610e5b565b005b34801561045f57600080fd5b5061047a60048036038101906104759190612730565b610e6f565b005b34801561048857600080fd5b506104a3600480360381019061049e9190612730565b610f83565b005b3480156104b157600080fd5b506104ba610fd9565b6040516104c79190612695565b60405180910390f35b3480156104dc57600080fd5b506104f760048036038101906104f291906126b0565b610fe1565b6040516105049190612695565b60405180910390f35b34801561051957600080fd5b5061052261102a565b005b34801561053057600080fd5b5061053961103e565b6040516105469190612695565b60405180910390f35b34801561055b57600080fd5b5061057660048036038101906105719190612610565b611048565b005b34801561058457600080fd5b5061059f600480360381019061059a91906126b0565b611068565b6040516105ac9190612695565b60405180910390f35b3480156105c157600080fd5b506105ca611080565b005b3480156105d857600080fd5b506105f360048036038101906105ee9190612610565b61123a565b005b34801561060157600080fd5b5061060a611494565b60405161061791906127a3565b60405180910390f35b34801561062c57600080fd5b506106356114be565b6040516106429190612555565b60405180910390f35b34801561065757600080fd5b50610672600480360381019061066d9190612610565b611550565b60405161067f919061266b565b60405180910390f35b34801561069457600080fd5b506106af60048036038101906106aa9190612610565b6115c7565b6040516106bc919061266b565b60405180910390f35b6106cd6115ea565b005b3480156106db57600080fd5b506106f660048036038101906106f19190612610565b6116dd565b005b34801561070457600080fd5b5061070d611869565b60405161071a9190612695565b60405180910390f35b34801561072f57600080fd5b5061074a600480360381019061074591906127be565b611873565b6040516107579190612695565b60405180910390f35b34801561076c57600080fd5b50610787600480360381019061078291906126b0565b6118fa565b005b6060603680546107989061282d565b80601f01602080910402602001604051908101604052809291908181526020018280546107c49061282d565b80156108115780601f106107e657610100808354040283529160200191610811565b820191906000526020600020905b8154815290600101906020018083116107f457829003601f168201915b5050505050905090565b60008061082661197d565b9050610833818585611985565b600191505092915050565b610846611b4e565b600073ffffffffffffffffffffffffffffffffffffffff168273ffffffffffffffffffffffffffffffffffffffff16036108b5576040517f08c379a00000000000000000000000000000000000000000000000000000000081526004016108ac906128aa565b60405180910390fd5b600081118015610926575060c9600060ca60009054906101000a900473ffffffffffffffffffffffffffffffffffffffff1673ffffffffffffffffffffffffffffffffffffffff1673ffffffffffffffffffffffffffffffffffffffff168152602001908152602001600020548111155b610965576040517f08c379a000000000000000000000000000000000000000000000000000000000815260040161095c90612916565b60405180910390fd5b6000606460cb54836109779190612965565b61098191906129d6565b9050600081836109919190612a07565b90508260c9600060ca60009054906101000a900473ffffffffffffffffffffffffffffffffffffffff1673ffffffffffffffffffffffffffffffffffffffff1673ffffffffffffffffffffffffffffffffffffffff1681526020019081526020016000206000828254610a049190612a07565b925050819055508160cc6000828254610a1d9190612a3b565b92505081905550610a5060ca60009054906101000a900473ffffffffffffffffffffffffffffffffffffffff1684611bcc565b8373ffffffffffffffffffffffffffffffffffffffff166108fc829081150290604051600060405180830381858888f19350505050158015610a96573d6000803e3d6000fd5b508373ffffffffffffffffffffffffffffffffffffffff1660ca60009054906101000a900473ffffffffffffffffffffffffffffffffffffffff1673ffffffffffffffffffffffffffffffffffffffff167fa856d9e39febebc9acaf7016917c5eff0da612e036ddaac5cf5b10b07c8a0f268360cc54604051610b1a929190612a6f565b60405180910390a350505050565b6000603554905090565b610b3a611b4e565b600060cc5411610b7f576040517f08c379a0000000000000000000000000000000000000000000000000000000008152600401610b7690612ae4565b60405180910390fd5b8073ffffffffffffffffffffffffffffffffffffffff166108fc60cc549081150290604051600060405180830381858888f19350505050158015610bc7573d6000803e3d6000fd5b508073ffffffffffffffffffffffffffffffffffffffff167f66bf9186b00db666fc37aaffbb95a050c66e599e000c785c1dff0467d868f1b160cc54604051610c109190612695565b60405180910390a250565b610c23611b4e565b8060ca60006101000a81548173ffffffffffffffffffffffffffffffffffffffff021916908373ffffffffffffffffffffffffffffffffffffffff16021790555050565b600080610c7261197d565b9050610c7f858285611d9b565b610c8a858585611e27565b60019150509392505050565b600060c960008373ffffffffffffffffffffffffffffffffffffffff1673ffffffffffffffffffffffffffffffffffffffff168152602001908152602001600020549050919050565b600081118015610d2e575060c960003373ffffffffffffffffffffffffffffffffffffffff1673ffffffffffffffffffffffffffffffffffffffff168152602001908152602001600020548111155b610d6d576040517f08c379a0000000000000000000000000000000000000000000000000000000008152600401610d6490612b50565b60405180910390fd5b3373ffffffffffffffffffffffffffffffffffffffff166108fc829081150290604051600060405180830381858888f19350505050158015610db3573d6000803e3d6000fd5b503373ffffffffffffffffffffffffffffffffffffffff167f884edad9ce6fa2440d8a54cc123490eb96d2768479d49ff9c7366125a942436482604051610dfa9190612695565b60405180910390a250565b60006012905090565b600080610e1961197d565b9050610e3a818585610e2b8589611873565b610e359190612a3b565b611985565b600191505092915050565b610e4d611b4e565b610e5782826120a0565b5050565b610e6c610e6661197d565b82611bcc565b50565b600081118015610ebe575060c960003373ffffffffffffffffffffffffffffffffffffffff1673ffffffffffffffffffffffffffffffffffffffff168152602001908152602001600020548111155b610efd576040517f08c379a0000000000000000000000000000000000000000000000000000000008152600401610ef490612bbc565b60405180910390fd5b8060c960003373ffffffffffffffffffffffffffffffffffffffff1673ffffffffffffffffffffffffffffffffffffffff1681526020019081526020016000206000828254610f4c9190612a07565b92505081905550610f803360ca60009054906101000a900473ffffffffffffffffffffffffffffffffffffffff1683611e27565b50565b610f8b611b4e565b6064811115610fcf576040517f08c379a0000000000000000000000000000000000000000000000000000000008152600401610fc690612c4e565b60405180910390fd5b8060cb8190555050565b600047905090565b6000603360008373ffffffffffffffffffffffffffffffffffffffff1673ffffffffffffffffffffffffffffffffffffffff168152602001908152602001600020549050919050565b611032611b4e565b61103c60006121f7565b565b600060cb54905090565b61105a8261105461197d565b83611d9b565b6110648282611bcc565b5050565b60c96020528060005260406000206000915090505481565b60008060019054906101000a900460ff161590508080156110b15750600160008054906101000a900460ff1660ff16105b806110de57506110c0306122bd565b1580156110dd5750600160008054906101000a900460ff1660ff16145b5b61111d576040517f08c379a000000000000000000000000000000000000000000000000000000000815260040161111490612ce0565b60405180910390fd5b60016000806101000a81548160ff021916908360ff160217905550801561115a576001600060016101000a81548160ff0219169083151502179055505b6111ce6040518060400160405280600781526020017f42545420544950000000000000000000000000000000000000000000000000008152506040518060400160405280600381526020017f54495000000000000000000000000000000000000000000000000000000000008152506122e0565b6111d661233d565b6111de61238e565b80156112375760008060016101000a81548160ff0219169083151502179055507f7f26b83ff96e1f2b6a682f133852f6798a09c465da95921460cefb3847402498600160405161122e9190612d45565b60405180910390a15b50565b600073ffffffffffffffffffffffffffffffffffffffff168273ffffffffffffffffffffffffffffffffffffffff16036112a9576040517f08c379a00000000000000000000000000000000000000000000000000000000081526004016112a0906128aa565b60405180910390fd5b6000811180156112f8575060c960003373ffffffffffffffffffffffffffffffffffffffff1673ffffffffffffffffffffffffffffffffffffffff168152602001908152602001600020548111155b611337576040517f08c379a000000000000000000000000000000000000000000000000000000000815260040161132e90612916565b60405180910390fd5b6000606460cb54836113499190612965565b61135391906129d6565b9050600081836113639190612a07565b90508260c960003373ffffffffffffffffffffffffffffffffffffffff1673ffffffffffffffffffffffffffffffffffffffff16815260200190815260200160002060008282546113b49190612a07565b925050819055508160cc60008282546113cd9190612a3b565b925050819055506113de3384611bcc565b8373ffffffffffffffffffffffffffffffffffffffff166108fc829081150290604051600060405180830381858888f19350505050158015611424573d6000803e3d6000fd5b508373ffffffffffffffffffffffffffffffffffffffff163373ffffffffffffffffffffffffffffffffffffffff167fa856d9e39febebc9acaf7016917c5eff0da612e036ddaac5cf5b10b07c8a0f268360cc54604051611486929190612a6f565b60405180910390a350505050565b6000609760009054906101000a900473ffffffffffffffffffffffffffffffffffffffff16905090565b6060603780546114cd9061282d565b80601f01602080910402602001604051908101604052809291908181526020018280546114f99061282d565b80156115465780601f1061151b57610100808354040283529160200191611546565b820191906000526020600020905b81548152906001019060200180831161152957829003601f168201915b5050505050905090565b60008061155b61197d565b905060006115698286611873565b9050838110156115ae576040517f08c379a00000000000000000000000000000000000000000000000000000000081526004016115a590612dd2565b60405180910390fd5b6115bb8286868403611985565b60019250505092915050565b6000806115d261197d565b90506115df818585611e27565b600191505092915050565b6000341161162d576040517f08c379a000000000000000000000000000000000000000000000000000000000815260040161162490612e64565b60405180910390fd5b3460c960003373ffffffffffffffffffffffffffffffffffffffff1673ffffffffffffffffffffffffffffffffffffffff168152602001908152602001600020600082825461167c9190612a3b565b9250508190555061168d33346120a0565b3373ffffffffffffffffffffffffffffffffffffffff167fe1fffcc4923d04b559f4d29a8bfc6cda04eb5b0d3c460751c2402c5c5cc9109c346040516116d39190612695565b60405180910390a2565b6116e5611b4e565b600073ffffffffffffffffffffffffffffffffffffffff168273ffffffffffffffffffffffffffffffffffffffff1603611754576040517f08c379a000000000000000000000000000000000000000000000000000000000815260040161174b90612ed0565b60405180910390fd5b6000811180156117a3575060c960008373ffffffffffffffffffffffffffffffffffffffff1673ffffffffffffffffffffffffffffffffffffffff168152602001908152602001600020548111155b6117e2576040517f08c379a00000000000000000000000000000000000000000000000000000000081526004016117d990612bbc565b60405180910390fd5b8060c960008473ffffffffffffffffffffffffffffffffffffffff1673ffffffffffffffffffffffffffffffffffffffff16815260200190815260200160002060008282546118319190612a07565b925050819055506118658260ca60009054906101000a900473ffffffffffffffffffffffffffffffffffffffff1683611e27565b5050565b600060cc54905090565b6000603460008473ffffffffffffffffffffffffffffffffffffffff1673ffffffffffffffffffffffffffffffffffffffff16815260200190815260200160002060008373ffffffffffffffffffffffffffffffffffffffff1673ffffffffffffffffffffffffffffffffffffffff16815260200190815260200160002054905092915050565b611902611b4e565b600073ffffffffffffffffffffffffffffffffffffffff168173ffffffffffffffffffffffffffffffffffffffff1603611971576040517f08c379a000000000000000000000000000000000000000000000000000000000815260040161196890612f62565b60405180910390fd5b61197a816121f7565b50565b600033905090565b600073ffffffffffffffffffffffffffffffffffffffff168373ffffffffffffffffffffffffffffffffffffffff16036119f4576040517f08c379a00000000000000000000000000000000000000000000000000000000081526004016119eb90612ff4565b60405180910390fd5b600073ffffffffffffffffffffffffffffffffffffffff168273ffffffffffffffffffffffffffffffffffffffff1603611a63576040517f08c379a0000000000000000000000000000000000000000000000000000000008152600401611a5a90613086565b60405180910390fd5b80603460008573ffffffffffffffffffffffffffffffffffffffff1673ffffffffffffffffffffffffffffffffffffffff16815260200190815260200160002060008473ffffffffffffffffffffffffffffffffffffffff1673ffffffffffffffffffffffffffffffffffffffff168152602001908152602001600020819055508173ffffffffffffffffffffffffffffffffffffffff168373ffffffffffffffffffffffffffffffffffffffff167f8c5be1e5ebec7d5bd14f71427d1e84f3dd0314c0f7b2291e5b200ac8c7c3b92583604051611b419190612695565b60405180910390a3505050565b611b5661197d565b73ffffffffffffffffffffffffffffffffffffffff16611b74611494565b73ffffffffffffffffffffffffffffffffffffffff1614611bca576040517f08c379a0000000000000000000000000000000000000000000000000000000008152600401611bc1906130f2565b60405180910390fd5b565b600073ffffffffffffffffffffffffffffffffffffffff168273ffffffffffffffffffffffffffffffffffffffff1603611c3b576040517f08c379a0000000000000000000000000000000000000000000000000000000008152600401611c3290613184565b60405180910390fd5b611c47826000836123e7565b6000603360008473ffffffffffffffffffffffffffffffffffffffff1673ffffffffffffffffffffffffffffffffffffffff16815260200190815260200160002054905081811015611cce576040517f08c379a0000000000000000000000000000000000000000000000000000000008152600401611cc590613216565b60405180910390fd5b818103603360008573ffffffffffffffffffffffffffffffffffffffff1673ffffffffffffffffffffffffffffffffffffffff1681526020019081526020016000208190555081603560008282540392505081905550600073ffffffffffffffffffffffffffffffffffffffff168373ffffffffffffffffffffffffffffffffffffffff167fddf252ad1be2c89b69c2b068fc378daa952ba7f163c4a11628f55a4df523b3ef84604051611d829190612695565b60405180910390a3611d96836000846123ec565b505050565b6000611da78484611873565b90507fffffffffffffffffffffffffffffffffffffffffffffffffffffffffffffffff8114611e215781811015611e13576040517f08c379a0000000000000000000000000000000000000000000000000000000008152600401611e0a90613282565b60405180910390fd5b611e208484848403611985565b5b50505050565b600073ffffffffffffffffffffffffffffffffffffffff168373ffffffffffffffffffffffffffffffffffffffff1603611e96576040517f08c379a0000000000000000000000000000000000000000000000000000000008152600401611e8d90613314565b60405180910390fd5b600073ffffffffffffffffffffffffffffffffffffffff168273ffffffffffffffffffffffffffffffffffffffff1603611f05576040517f08c379a0000000000000000000000000000000000000000000000000000000008152600401611efc906133a6565b60405180910390fd5b611f108383836123e7565b6000603360008573ffffffffffffffffffffffffffffffffffffffff1673ffffffffffffffffffffffffffffffffffffffff16815260200190815260200160002054905081811015611f97576040517f08c379a0000000000000000000000000000000000000000000000000000000008152600401611f8e90613438565b60405180910390fd5b818103603360008673ffffffffffffffffffffffffffffffffffffffff1673ffffffffffffffffffffffffffffffffffffffff1681526020019081526020016000208190555081603360008573ffffffffffffffffffffffffffffffffffffffff1673ffffffffffffffffffffffffffffffffffffffff168152602001908152602001600020600082825401925050819055508273ffffffffffffffffffffffffffffffffffffffff168473ffffffffffffffffffffffffffffffffffffffff167fddf252ad1be2c89b69c2b068fc378daa952ba7f163c4a11628f55a4df523b3ef846040516120879190612695565b60405180910390a361209a8484846123ec565b50505050565b600073ffffffffffffffffffffffffffffffffffffffff168273ffffffffffffffffffffffffffffffffffffffff160361210f576040517f08c379a0000000000000000000000000000000000000000000000000000000008152600401612106906134a4565b60405180910390fd5b61211b600083836123e7565b806035600082825461212d9190612a3b565b9250508190555080603360008473ffffffffffffffffffffffffffffffffffffffff1673ffffffffffffffffffffffffffffffffffffffff168152602001908152602001600020600082825401925050819055508173ffffffffffffffffffffffffffffffffffffffff16600073ffffffffffffffffffffffffffffffffffffffff167fddf252ad1be2c89b69c2b068fc378daa952ba7f163c4a11628f55a4df523b3ef836040516121df9190612695565b60405180910390a36121f3600083836123ec565b5050565b6000609760009054906101000a900473ffffffffffffffffffffffffffffffffffffffff16905081609760006101000a81548173ffffffffffffffffffffffffffffffffffffffff021916908373ffffffffffffffffffffffffffffffffffffffff1602179055508173ffffffffffffffffffffffffffffffffffffffff168173ffffffffffffffffffffffffffffffffffffffff167f8be0079c531659141344cd1fd0a4f28419497f9722a3daafe3b4186f6b6457e060405160405180910390a35050565b6000808273ffffffffffffffffffffffffffffffffffffffff163b119050919050565b600060019054906101000a900460ff1661232f576040517f08c379a000000000000000000000000000000000000000000000000000000000815260040161232690613536565b60405180910390fd5b61233982826123f1565b5050565b600060019054906101000a900460ff1661238c576040517f08c379a000000000000000000000000000000000000000000000000000000000815260040161238390613536565b60405180910390fd5b565b600060019054906101000a900460ff166123dd576040517f08c379a00000000000000000000000000000000000000000000000000000000081526004016123d490613536565b60405180910390fd5b6123e5612464565b565b505050565b505050565b600060019054906101000a900460ff16612440576040517f08c379a000000000000000000000000000000000000000000000000000000000815260040161243790613536565b60405180910390fd5b816036908161244f9190613727565b50806037908161245f9190613727565b505050565b600060019054906101000a900460ff166124b3576040517f08c379a00000000000000000000000000000000000000000000000000000000081526004016124aa90613536565b60405180910390fd5b6124c36124be61197d565b6121f7565b565b600081519050919050565b600082825260208201905092915050565b60005b838110156124ff5780820151818401526020810190506124e4565b60008484015250505050565b6000601f19601f8301169050919050565b6000612527826124c5565b61253181856124d0565b93506125418185602086016124e1565b61254a8161250b565b840191505092915050565b6000602082019050818103600083015261256f818461251c565b905092915050565b600080fd5b600073ffffffffffffffffffffffffffffffffffffffff82169050919050565b60006125a78261257c565b9050919050565b6125b78161259c565b81146125c257600080fd5b50565b6000813590506125d4816125ae565b92915050565b6000819050919050565b6125ed816125da565b81146125f857600080fd5b50565b60008135905061260a816125e4565b92915050565b6000806040838503121561262757612626612577565b5b6000612635858286016125c5565b9250506020612646858286016125fb565b9150509250929050565b60008115159050919050565b61266581612650565b82525050565b6000602082019050612680600083018461265c565b92915050565b61268f816125da565b82525050565b60006020820190506126aa6000830184612686565b92915050565b6000602082840312156126c6576126c5612577565b5b60006126d4848285016125c5565b91505092915050565b6000806000606084860312156126f6576126f5612577565b5b6000612704868287016125c5565b9350506020612715868287016125c5565b9250506040612726868287016125fb565b9150509250925092565b60006020828403121561274657612745612577565b5b6000612754848285016125fb565b91505092915050565b600060ff82169050919050565b6127738161275d565b82525050565b600060208201905061278e600083018461276a565b92915050565b61279d8161259c565b82525050565b60006020820190506127b86000830184612794565b92915050565b600080604083850312156127d5576127d4612577565b5b60006127e3858286016125c5565b92505060206127f4858286016125c5565b9150509250929050565b7f4e487b7100000000000000000000000000000000000000000000000000000000600052602260045260246000fd5b6000600282049050600182168061284557607f821691505b602082108103612858576128576127fe565b5b50919050565b7f496e76616c696420746970206164647265737300000000000000000000000000600082015250565b60006128946013836124d0565b915061289f8261285e565b602082019050919050565b600060208201905081810360008301526128c381612887565b9050919050565b7f496e76616c69642074697020616d6f756e740000000000000000000000000000600082015250565b60006129006012836124d0565b915061290b826128ca565b602082019050919050565b6000602082019050818103600083015261292f816128f3565b9050919050565b7f4e487b7100000000000000000000000000000000000000000000000000000000600052601160045260246000fd5b6000612970826125da565b915061297b836125da565b9250828202612989816125da565b915082820484148315176129a05761299f612936565b5b5092915050565b7f4e487b7100000000000000000000000000000000000000000000000000000000600052601260045260246000fd5b60006129e1826125da565b91506129ec836125da565b9250826129fc576129fb6129a7565b5b828204905092915050565b6000612a12826125da565b9150612a1d836125da565b9250828203905081811115612a3557612a34612936565b5b92915050565b6000612a46826125da565b9150612a51836125da565b9250828201905080821115612a6957612a68612936565b5b92915050565b6000604082019050612a846000830185612686565b612a916020830184612686565b9392505050565b7f4e6f206665652062616c616e636520746f207769746864726177000000000000600082015250565b6000612ace601a836124d0565b9150612ad982612a98565b602082019050919050565b60006020820190508181036000830152612afd81612ac1565b9050919050565b7f496e76616c696420776974686472617720616d6f756e74000000000000000000600082015250565b6000612b3a6017836124d0565b9150612b4582612b04565b602082019050919050565b60006020820190508181036000830152612b6981612b2d565b9050919050565b7f496e76616c6964207769746864726177616c20616d6f756e7400000000000000600082015250565b6000612ba66019836124d0565b9150612bb182612b70565b602082019050919050565b60006020820190508181036000830152612bd581612b99565b9050919050565b7f4665652070657263656e746167652063616e6e6f74206578636565642031303060008201527f2500000000000000000000000000000000000000000000000000000000000000602082015250565b6000612c386021836124d0565b9150612c4382612bdc565b604082019050919050565b60006020820190508181036000830152612c6781612c2b565b9050919050565b7f496e697469616c697a61626c653a20636f6e747261637420697320616c72656160008201527f647920696e697469616c697a6564000000000000000000000000000000000000602082015250565b6000612cca602e836124d0565b9150612cd582612c6e565b604082019050919050565b60006020820190508181036000830152612cf981612cbd565b9050919050565b6000819050919050565b6000819050919050565b6000612d2f612d2a612d2584612d00565b612d0a565b61275d565b9050919050565b612d3f81612d14565b82525050565b6000602082019050612d5a6000830184612d36565b92915050565b7f45524332303a2064656372656173656420616c6c6f77616e63652062656c6f7760008201527f207a65726f000000000000000000000000000000000000000000000000000000602082015250565b6000612dbc6025836124d0565b9150612dc782612d60565b604082019050919050565b60006020820190508181036000830152612deb81612daf565b9050919050565b7f4465706f7369742076616c7565206d757374206265206772656174657220746860008201527f616e207a65726f00000000000000000000000000000000000000000000000000602082015250565b6000612e4e6027836124d0565b9150612e5982612df2565b604082019050919050565b60006020820190508181036000830152612e7d81612e41565b9050919050565b7f496e76616c696420696e70757420616464726573730000000000000000000000600082015250565b6000612eba6015836124d0565b9150612ec582612e84565b602082019050919050565b60006020820190508181036000830152612ee981612ead565b9050919050565b7f4f776e61626c653a206e6577206f776e657220697320746865207a65726f206160008201527f6464726573730000000000000000000000000000000000000000000000000000602082015250565b6000612f4c6026836124d0565b9150612f5782612ef0565b604082019050919050565b60006020820190508181036000830152612f7b81612f3f565b9050919050565b7f45524332303a20617070726f76652066726f6d20746865207a65726f2061646460008201527f7265737300000000000000000000000000000000000000000000000000000000602082015250565b6000612fde6024836124d0565b9150612fe982612f82565b604082019050919050565b6000602082019050818103600083015261300d81612fd1565b9050919050565b7f45524332303a20617070726f766520746f20746865207a65726f20616464726560008201527f7373000000000000000000000000000000000000000000000000000000000000602082015250565b60006130706022836124d0565b915061307b82613014565b604082019050919050565b6000602082019050818103600083015261309f81613063565b9050919050565b7f4f776e61626c653a2063616c6c6572206973206e6f7420746865206f776e6572600082015250565b60006130dc6020836124d0565b91506130e7826130a6565b602082019050919050565b6000602082019050818103600083015261310b816130cf565b9050919050565b7f45524332303a206275726e2066726f6d20746865207a65726f2061646472657360008201527f7300000000000000000000000000000000000000000000000000000000000000602082015250565b600061316e6021836124d0565b915061317982613112565b604082019050919050565b6000602082019050818103600083015261319d81613161565b9050919050565b7f45524332303a206275726e20616d6f756e7420657863656564732062616c616e60008201527f6365000000000000000000000000000000000000000000000000000000000000602082015250565b60006132006022836124d0565b915061320b826131a4565b604082019050919050565b6000602082019050818103600083015261322f816131f3565b9050919050565b7f45524332303a20696e73756666696369656e7420616c6c6f77616e6365000000600082015250565b600061326c601d836124d0565b915061327782613236565b602082019050919050565b6000602082019050818103600083015261329b8161325f565b9050919050565b7f45524332303a207472616e736665722066726f6d20746865207a65726f20616460008201527f6472657373000000000000000000000000000000000000000000000000000000602082015250565b60006132fe6025836124d0565b9150613309826132a2565b604082019050919050565b6000602082019050818103600083015261332d816132f1565b9050919050565b7f45524332303a207472616e7366657220746f20746865207a65726f206164647260008201527f6573730000000000000000000000000000000000000000000000000000000000602082015250565b60006133906023836124d0565b915061339b82613334565b604082019050919050565b600060208201905081810360008301526133bf81613383565b9050919050565b7f45524332303a207472616e7366657220616d6f756e742065786365656473206260008201527f616c616e63650000000000000000000000000000000000000000000000000000602082015250565b60006134226026836124d0565b915061342d826133c6565b604082019050919050565b6000602082019050818103600083015261345181613415565b9050919050565b7f45524332303a206d696e7420746f20746865207a65726f206164647265737300600082015250565b600061348e601f836124d0565b915061349982613458565b602082019050919050565b600060208201905081810360008301526134bd81613481565b9050919050565b7f496e697469616c697a61626c653a20636f6e7472616374206973206e6f74206960008201527f6e697469616c697a696e67000000000000000000000000000000000000000000602082015250565b6000613520602b836124d0565b915061352b826134c4565b604082019050919050565b6000602082019050818103600083015261354f81613513565b9050919050565b7f4e487b7100000000000000000000000000000000000000000000000000000000600052604160045260246000fd5b60008190508160005260206000209050919050565b60006020601f8301049050919050565b600082821b905092915050565b6000600883026135e77fffffffffffffffffffffffffffffffffffffffffffffffffffffffffffffffff826135aa565b6135f186836135aa565b95508019841693508086168417925050509392505050565b600061362461361f61361a846125da565b612d0a565b6125da565b9050919050565b6000819050919050565b61363e83613609565b61365261364a8261362b565b8484546135b7565b825550505050565b600090565b61366761365a565b613672818484613635565b505050565b5b818110156136965761368b60008261365f565b600181019050613678565b5050565b601f8211156136db576136ac81613585565b6136b58461359a565b810160208510156136c4578190505b6136d86136d08561359a565b830182613677565b50505b505050565b600082821c905092915050565b60006136fe600019846008026136e0565b1980831691505092915050565b600061371783836136ed565b9150826002028217905092915050565b613730826124c5565b67ffffffffffffffff81111561374957613748613556565b5b613753825461282d565b61375e82828561369a565b600060209050601f831160018114613791576000841561377f578287015190505b613789858261370b565b8655506137f1565b601f19841661379f86613585565b60005b828110156137c7578489015182556001820191506020850194506020810190506137a2565b868310156137e457848901516137e0601f8916826136ed565b8355505b6001600288020188555050505b50505050505056fea26469706673582212201b0037209164d0bb638d2917707803f1f624cdcb6c00e7130bfe6ec40cf752f464736f6c63430008130033",
  "linkReferences": {},
  "deployedLinkReferences": {}
}