{
  "_format": "hh-sol-artifact-1",
  "contractName": "TipBot",
  "sourceName": "contracts/TipBot.sol",
  "abi": [
    {
      "anonymous": false,
      "inputs": [
        {
          "indexed": true,
          "internalType": "address",
          "name": "owner",
          "type": "address"
        },
        {
          "indexed": true,
          "internalType": "address",
          "name": "spender",
          "type": "address"
        },
        {
          "indexed": false,
          "internalType": "uint256",
          "name": "value",
          "type": "uint256"
        }
      ],
      "name": "Approval",
      "type": "event"
    },
    {
      "anonymous": false,
      "inputs": [
        {
          "indexed": true,
          "internalType": "address",
          "name": "depositor",
          "type": "address"
        },
        {
          "indexed": false,
          "internalType": "uint256",
          "name": "value",
          "type": "uint256"
        }
      ],
      "name": "Deposit",
      "type": "event"
    },
    {
      "anonymous": false,
      "inputs": [
        {
          "indexed": true,
          "internalType": "address",
          "name": "tokenERC20",
          "type": "address"
        },
        {
          "indexed": true,
          "internalType": "address",
          "name": "depositor",
          "type": "address"
        },
        {
          "indexed": false,
          "internalType": "uint256",
          "name": "value",
          "type": "uint256"
        }
      ],
      "name": "DepositERC20",
      "type": "event"
    },
    {
      "anonymous": false,
      "inputs": [
        {
          "indexed": false,
          "internalType": "uint8",
          "name": "version",
          "type": "uint8"
        }
      ],
      "name": "Initialized",
      "type": "event"
    },
    {
      "anonymous": false,
      "inputs": [
        {
          "indexed": true,
          "internalType": "address",
          "name": "previousOwner",
          "type": "address"
        },
        {
          "indexed": true,
          "internalType": "address",
          "name": "newOwner",
          "type": "address"
        }
      ],
      "name": "OwnershipTransferred",
      "type": "event"
    },
    {
      "anonymous": false,
      "inputs": [
        {
          "indexed": true,
          "internalType": "address",
          "name": "from",
          "type": "address"
        },
        {
          "indexed": true,
          "internalType": "address",
          "name": "to",
          "type": "address"
        },
        {
          "indexed": false,
          "internalType": "uint256",
          "name": "amount",
          "type": "uint256"
        },
        {
          "indexed": false,
          "internalType": "uint256",
          "name": "feeAmount",
          "type": "uint256"
        }
      ],
      "name": "Tip",
      "type": "event"
    },
    {
      "anonymous": false,
      "inputs": [
        {
          "indexed": true,
          "internalType": "address",
          "name": "tokenERC20",
          "type": "address"
        },
        {
          "indexed": true,
          "internalType": "address",
          "name": "from",
          "type": "address"
        },
        {
          "indexed": true,
          "internalType": "address",
          "name": "to",
          "type": "address"
        },
        {
          "indexed": false,
          "internalType": "uint256",
          "name": "amount",
          "type": "uint256"
        },
        {
          "indexed": false,
          "internalType": "uint256",
          "name": "feeAmount",
          "type": "uint256"
        }
      ],
      "name": "TipERC20",
      "type": "event"
    },
    {
      "anonymous": false,
      "inputs": [
        {
          "indexed": true,
          "internalType": "address",
          "name": "from",
          "type": "address"
        },
        {
          "indexed": true,
          "internalType": "address",
          "name": "to",
          "type": "address"
        },
        {
          "indexed": false,
          "internalType": "uint256",
          "name": "value",
          "type": "uint256"
        }
      ],
      "name": "Transfer",
      "type": "event"
    },
    {
      "anonymous": false,
      "inputs": [
        {
          "indexed": true,
          "internalType": "address",
          "name": "owner",
          "type": "address"
        },
        {
          "indexed": false,
          "internalType": "uint256",
          "name": "value",
          "type": "uint256"
        }
      ],
      "name": "Withdraw",
      "type": "event"
    },
    {
      "anonymous": false,
      "inputs": [
        {
          "indexed": true,
          "internalType": "address",
          "name": "tokenERC20",
          "type": "address"
        },
        {
          "indexed": true,
          "internalType": "address",
          "name": "depositor",
          "type": "address"
        },
        {
          "indexed": false,
          "internalType": "uint256",
          "name": "value",
          "type": "uint256"
        }
      ],
      "name": "WithdrawERC20",
      "type": "event"
    },
    {
      "anonymous": false,
      "inputs": [
        {
          "indexed": true,
          "internalType": "address",
          "name": "owner",
          "type": "address"
        },
        {
          "indexed": false,
          "internalType": "uint256",
          "name": "feeAmount",
          "type": "uint256"
        }
      ],
      "name": "WithdrawFee",
      "type": "event"
    },
    {
      "anonymous": false,
      "inputs": [
        {
          "indexed": true,
          "internalType": "address",
          "name": "tokenERC20",
          "type": "address"
        },
        {
          "indexed": true,
          "internalType": "address",
          "name": "owner",
          "type": "address"
        },
        {
          "indexed": false,
          "internalType": "uint256",
          "name": "feeAmount",
          "type": "uint256"
        }
      ],
      "name": "WithdrawFeeERC20",
      "type": "event"
    },
    {
      "inputs": [
        {
          "internalType": "address",
          "name": "owner",
          "type": "address"
        },
        {
          "internalType": "address",
          "name": "spender",
          "type": "address"
        }
      ],
      "name": "allowance",
      "outputs": [
        {
          "internalType": "uint256",
          "name": "",
          "type": "uint256"
        }
      ],
      "stateMutability": "view",
      "type": "function"
    },
    {
      "inputs": [
        {
          "internalType": "address",
          "name": "spender",
          "type": "address"
        },
        {
          "internalType": "uint256",
          "name": "amount",
          "type": "uint256"
        }
      ],
      "name": "approve",
      "outputs": [
        {
          "internalType": "bool",
          "name": "",
          "type": "bool"
        }
      ],
      "stateMutability": "nonpayable",
      "type": "function"
    },
    {
      "inputs": [
        {
          "internalType": "address",
          "name": "account",
          "type": "address"
        }
      ],
      "name": "balanceOf",
      "outputs": [
        {
          "internalType": "uint256",
          "name": "",
          "type": "uint256"
        }
      ],
      "stateMutability": "view",
      "type": "function"
    },
    {
      "inputs": [
        {
          "internalType": "uint256",
          "name": "amount",
          "type": "uint256"
        }
      ],
      "name": "burn",
      "outputs": [],
      "stateMutability": "nonpayable",
      "type": "function"
    },
    {
      "inputs": [
        {
          "internalType": "address",
          "name": "account",
          "type": "address"
        },
        {
          "internalType": "uint256",
          "name": "amount",
          "type": "uint256"
        }
      ],
      "name": "burnFrom",
      "outputs": [],
      "stateMutability": "nonpayable",
      "type": "function"
    },
    {
      "inputs": [],
      "name": "decimals",
      "outputs": [
        {
          "internalType": "uint8",
          "name": "",
          "type": "uint8"
        }
      ],
      "stateMutability": "view",
      "type": "function"
    },
    {
      "inputs": [
        {
          "internalType": "address",
          "name": "spender",
          "type": "address"
        },
        {
          "internalType": "uint256",
          "name": "subtractedValue",
          "type": "uint256"
        }
      ],
      "name": "decreaseAllowance",
      "outputs": [
        {
          "internalType": "bool",
          "name": "",
          "type": "bool"
        }
      ],
      "stateMutability": "nonpayable",
      "type": "function"
    },
    {
      "inputs": [],
      "name": "deposit",
      "outputs": [],
      "stateMutability": "payable",
      "type": "function"
    },
    {
      "inputs": [
        {
          "internalType": "address",
          "name": "tokenAddress",
          "type": "address"
        },
        {
          "internalType": "uint256",
          "name": "amount",
          "type": "uint256"
        },
        {
          "internalType": "address",
          "name": "to",
          "type": "address"
        },
        {
          "internalType": "uint256",
          "name": "tipAmount",
          "type": "uint256"
        }
      ],
      "name": "depositAndTipERC20",
      "outputs": [],
      "stateMutability": "nonpayable",
      "type": "function"
    },
    {
      "inputs": [
        {
          "internalType": "address",
          "name": "tokenAddress",
          "type": "address"
        },
        {
          "internalType": "uint256",
          "name": "amount",
          "type": "uint256"
        },
        {
          "internalType": "address[]",
          "name": "to",
          "type": "address[]"
        },
        {
          "internalType": "uint256[]",
          "name": "tipAmount",
          "type": "uint256[]"
        }
      ],
      "name": "depositAndTipERC20Multiple",
      "outputs": [],
      "stateMutability": "nonpayable",
      "type": "function"
    },
    {
      "inputs": [
        {
          "internalType": "address",
          "name": "tokenAddress",
          "type": "address"
        },
        {
          "internalType": "uint256",
          "name": "amount",
          "type": "uint256"
        }
      ],
      "name": "depositERC20",
      "outputs": [],
      "stateMutability": "nonpayable",
      "type": "function"
    },
    {
      "inputs": [],
      "name": "depositTopUp",
      "outputs": [],
      "stateMutability": "payable",
      "type": "function"
    },
    {
      "inputs": [
        {
          "internalType": "address",
          "name": "tokenAddress",
          "type": "address"
        },
        {
          "internalType": "uint256",
          "name": "amount",
          "type": "uint256"
        }
      ],
      "name": "depositTopUpERC20",
      "outputs": [],
      "stateMutability": "nonpayable",
      "type": "function"
    },
    {
      "inputs": [
        {
          "internalType": "address",
          "name": "",
          "type": "address"
        }
      ],
      "name": "depositedBalances",
      "outputs": [
        {
          "internalType": "uint256",
          "name": "",
          "type": "uint256"
        }
      ],
      "stateMutability": "view",
      "type": "function"
    },
    {
      "inputs": [
        {
          "internalType": "address",
          "name": "",
          "type": "address"
        },
        {
          "internalType": "address",
          "name": "",
          "type": "address"
        }
      ],
      "name": "depositedBalancesERC20",
      "outputs": [
        {
          "internalType": "uint256",
          "name": "",
          "type": "uint256"
        }
      ],
      "stateMutability": "view",
      "type": "function"
    },
    {
      "inputs": [
        {
          "internalType": "address",
          "name": "",
          "type": "address"
        }
      ],
      "name": "feeERC20Amount",
      "outputs": [
        {
          "internalType": "uint256",
          "name": "",
          "type": "uint256"
        }
      ],
      "stateMutability": "view",
      "type": "function"
    },
    {
      "inputs": [],
      "name": "getContractBalance",
      "outputs": [
        {
          "internalType": "uint256",
          "name": "",
          "type": "uint256"
        }
      ],
      "stateMutability": "view",
      "type": "function"
    },
    {
      "inputs": [
        {
          "internalType": "address",
          "name": "depositor",
          "type": "address"
        }
      ],
      "name": "getDepositedBalance",
      "outputs": [
        {
          "internalType": "uint256",
          "name": "",
          "type": "uint256"
        }
      ],
      "stateMutability": "view",
      "type": "function"
    },
    {
      "inputs": [
        {
          "internalType": "address",
          "name": "tokenAddress",
          "type": "address"
        },
        {
          "internalType": "address",
          "name": "depositor",
          "type": "address"
        }
      ],
      "name": "getDepositedBalanceERC20",
      "outputs": [
        {
          "internalType": "uint256",
          "name": "",
          "type": "uint256"
        }
      ],
      "stateMutability": "view",
      "type": "function"
    },
    {
      "inputs": [],
      "name": "getFeeBalance",
      "outputs": [
        {
          "internalType": "uint256",
          "name": "",
          "type": "uint256"
        }
      ],
      "stateMutability": "view",
      "type": "function"
    },
    {
      "inputs": [
        {
          "internalType": "address",
          "name": "tokenAddress",
          "type": "address"
        }
      ],
      "name": "getFeeBalanceERC20",
      "outputs": [
        {
          "internalType": "uint256",
          "name": "",
          "type": "uint256"
        }
      ],
      "stateMutability": "view",
      "type": "function"
    },
    {
      "inputs": [],
      "name": "getFeeProcent",
      "outputs": [
        {
          "internalType": "uint256",
          "name": "",
          "type": "uint256"
        }
      ],
      "stateMutability": "view",
      "type": "function"
    },
    {
      "inputs": [],
      "name": "getTopUpAddress",
      "outputs": [
        {
          "internalType": "address",
          "name": "",
          "type": "address"
        }
      ],
      "stateMutability": "view",
      "type": "function"
    },
    {
      "inputs": [
        {
          "internalType": "address",
          "name": "spender",
          "type": "address"
        },
        {
          "internalType": "uint256",
          "name": "addedValue",
          "type": "uint256"
        }
      ],
      "name": "increaseAllowance",
      "outputs": [
        {
          "internalType": "bool",
          "name": "",
          "type": "bool"
        }
      ],
      "stateMutability": "nonpayable",
      "type": "function"
    },
    {
      "inputs": [],
      "name": "initialize",
      "outputs": [],
      "stateMutability": "nonpayable",
      "type": "function"
    },
    {
      "inputs": [
        {
          "internalType": "address",
          "name": "account",
          "type": "address"
        },
        {
          "internalType": "uint256",
          "name": "amount",
          "type": "uint256"
        }
      ],
      "name": "mint",
      "outputs": [],
      "stateMutability": "nonpayable",
      "type": "function"
    },
    {
      "inputs": [],
      "name": "name",
      "outputs": [
        {
          "internalType": "string",
          "name": "",
          "type": "string"
        }
      ],
      "stateMutability": "view",
      "type": "function"
    },
    {
      "inputs": [],
      "name": "owner",
      "outputs": [
        {
          "internalType": "address",
          "name": "",
          "type": "address"
        }
      ],
      "stateMutability": "view",
      "type": "function"
    },
    {
      "inputs": [],
      "name": "renounceOwnership",
      "outputs": [],
      "stateMutability": "nonpayable",
      "type": "function"
    },
    {
      "inputs": [
        {
          "internalType": "uint256",
          "name": "_fee",
          "type": "uint256"
        }
      ],
      "name": "setFee",
      "outputs": [],
      "stateMutability": "nonpayable",
      "type": "function"
    },
    {
      "inputs": [
        {
          "internalType": "address",
          "name": "_topUpAddress",
          "type": "address"
        }
      ],
      "name": "setTopUpAddress",
      "outputs": [],
      "stateMutability": "nonpayable",
      "type": "function"
    },
    {
      "inputs": [],
      "name": "symbol",
      "outputs": [
        {
          "internalType": "string",
          "name": "",
          "type": "string"
        }
      ],
      "stateMutability": "view",
      "type": "function"
    },
    {
      "inputs": [
        {
          "internalType": "address",
          "name": "to",
          "type": "address"
        },
        {
          "internalType": "uint256",
          "name": "amount",
          "type": "uint256"
        }
      ],
      "name": "tip",
      "outputs": [],
      "stateMutability": "nonpayable",
      "type": "function"
    },
    {
      "inputs": [
        {
          "internalType": "address",
          "name": "tokenAddress",
          "type": "address"
        },
        {
          "internalType": "address",
          "name": "to",
          "type": "address"
        },
        {
          "internalType": "uint256",
          "name": "amount",
          "type": "uint256"
        }
      ],
      "name": "tipERC20",
      "outputs": [],
      "stateMutability": "nonpayable",
      "type": "function"
    },
    {
      "inputs": [
        {
          "internalType": "address",
          "name": "tokenAddress",
          "type": "address"
        },
        {
          "internalType": "address[]",
          "name": "to",
          "type": "address[]"
        },
        {
          "internalType": "uint256[]",
          "name": "amount",
          "type": "uint256[]"
        }
      ],
      "name": "tipERC20Multiple",
      "outputs": [],
      "stateMutability": "nonpayable",
      "type": "function"
    },
    {
      "inputs": [
        {
          "internalType": "address[]",
          "name": "to",
          "type": "address[]"
        },
        {
          "internalType": "uint256[]",
          "name": "amount",
          "type": "uint256[]"
        }
      ],
      "name": "tipMultiple",
      "outputs": [],
      "stateMutability": "nonpayable",
      "type": "function"
    },
    {
      "inputs": [
        {
          "internalType": "address",
          "name": "to",
          "type": "address"
        },
        {
          "internalType": "uint256",
          "name": "amount",
          "type": "uint256"
        }
      ],
      "name": "tipTopUp",
      "outputs": [],
      "stateMutability": "nonpayable",
      "type": "function"
    },
    {
      "inputs": [
        {
          "internalType": "address",
          "name": "tokenAddress",
          "type": "address"
        },
        {
          "internalType": "address",
          "name": "to",
          "type": "address"
        },
        {
          "internalType": "uint256",
          "name": "amount",
          "type": "uint256"
        }
      ],
      "name": "tipTopUpERC20",
      "outputs": [],
      "stateMutability": "nonpayable",
      "type": "function"
    },
    {
      "inputs": [
        {
          "internalType": "uint256",
          "name": "amount",
          "type": "uint256"
        }
      ],
      "name": "topUp",
      "outputs": [],
      "stateMutability": "nonpayable",
      "type": "function"
    },
    {
      "inputs": [
        {
          "internalType": "address",
          "name": "tokenAddress",
          "type": "address"
        },
        {
          "internalType": "uint256",
          "name": "amount",
          "type": "uint256"
        }
      ],
      "name": "topUpERC20",
      "outputs": [],
      "stateMutability": "nonpayable",
      "type": "function"
    },
    {
      "inputs": [
        {
          "internalType": "address",
          "name": "to",
          "type": "address"
        },
        {
          "internalType": "uint256",
          "name": "amount",
          "type": "uint256"
        }
      ],
      "name": "topUpOwner",
      "outputs": [],
      "stateMutability": "nonpayable",
      "type": "function"
    },
    {
      "inputs": [],
      "name": "totalSupply",
      "outputs": [
        {
          "internalType": "uint256",
          "name": "",
          "type": "uint256"
        }
      ],
      "stateMutability": "view",
      "type": "function"
    },
    {
      "inputs": [
        {
          "internalType": "address",
          "name": "to",
          "type": "address"
        },
        {
          "internalType": "uint256",
          "name": "amount",
          "type": "uint256"
        }
      ],
      "name": "transfer",
      "outputs": [
        {
          "internalType": "bool",
          "name": "",
          "type": "bool"
        }
      ],
      "stateMutability": "nonpayable",
      "type": "function"
    },
    {
      "inputs": [
        {
          "internalType": "address",
          "name": "from",
          "type": "address"
        },
        {
          "internalType": "address",
          "name": "to",
          "type": "address"
        },
        {
          "internalType": "uint256",
          "name": "amount",
          "type": "uint256"
        }
      ],
      "name": "transferFrom",
      "outputs": [
        {
          "internalType": "bool",
          "name": "",
          "type": "bool"
        }
      ],
      "stateMutability": "nonpayable",
      "type": "function"
    },
    {
      "inputs": [
        {
          "internalType": "address",
          "name": "newOwner",
          "type": "address"
        }
      ],
      "name": "transferOwnership",
      "outputs": [],
      "stateMutability": "nonpayable",
      "type": "function"
    },
    {
      "inputs": [
        {
          "internalType": "uint256",
          "name": "amount",
          "type": "uint256"
        }
      ],
      "name": "withdraw",
      "outputs": [],
      "stateMutability": "nonpayable",
      "type": "function"
    },
    {
      "inputs": [
        {
          "internalType": "address",
          "name": "tokenAddress",
          "type": "address"
        },
        {
          "internalType": "uint256",
          "name": "amount",
          "type": "uint256"
        }
      ],
      "name": "withdrawERC20",
      "outputs": [],
      "stateMutability": "nonpayable",
      "type": "function"
    },
    {
      "inputs": [
        {
          "internalType": "address",
          "name": "_to",
          "type": "address"
        }
      ],
      "name": "withdrawFee",
      "outputs": [],
      "stateMutability": "nonpayable",
      "type": "function"
    },
    {
      "inputs": [
        {
          "internalType": "address",
          "name": "tokenAddress",
          "type": "address"
        },
        {
          "internalType": "address",
          "name": "_to",
          "type": "address"
        }
      ],
      "name": "withdrawFeeERC20",
      "outputs": [],
      "stateMutability": "nonpayable",
      "type": "function"
    }
  ],
  "bytecode": "0x608060405234801561001057600080fd5b506158eb80620000216000396000f3fe6080604052600436106102ae5760003560e01c806370a082311161017557806397feb926116100dc578063c3c6128811610095578063d4c30ceb1161006f578063d4c30ceb14610a86578063dd62ed3e14610ab1578063f2fde38b14610aee578063f8020e2514610b17576102ae565b8063c3c6128814610a16578063d0e30db014610a53578063d46e2a6d14610a5d576102ae565b806397feb926146108e4578063984e31dd1461090d578063a1db97821461094a578063a2e686d014610973578063a457c2d71461099c578063a9059cbb146109d9576102ae565b806383f42e8e1161012e57806383f42e8e146107e857806386463e09146108115780638b6fc4521461083a5780638da5cb5b146108635780638f0766931461088e57806395d89b41146108b9576102ae565b806370a08231146106ec578063715018a614610729578063751e58ce1461074057806379cc67901461076b5780637d995311146107945780638129fc1c146107d1576102ae565b8063308a4cb31161021957806350017f3e116101d257806350017f3e146105e0578063514c132114610609578063533f1fa31461063257806368fcf4f61461066f57806369fe0e2d146106985780636f9fb98a146106c1576102ae565b8063308a4cb3146104d4578063313ce567146104fd578063395093511461052857806340c10f191461056557806342966c681461058e5780634ff30cf2146105b7576102ae565b806318160ddd1161026b57806318160ddd146103b45780631ac3ddeb146103df5780631dd09ed81461040857806323b872dd146104315780632a973daf1461046e5780632e1a7d4d146104ab576102ae565b806303ab3418146102b357806306fdde03146102bd5780630919adef146102e8578063095ea7b31461031157806310a1e5a81461034e578063154440521461038b575b600080fd5b6102bb610b40565b005b3480156102c957600080fd5b506102d2610c77565b6040516102df9190614015565b60405180910390f35b3480156102f457600080fd5b5061030f600480360381019061030a91906142ea565b610d09565b005b34801561031d57600080fd5b5061033860048036038101906103339190614375565b610db1565b60405161034591906143d0565b60405180910390f35b34801561035a57600080fd5b50610375600480360381019061037091906143eb565b610dd4565b604051610382919061443a565b60405180910390f35b34801561039757600080fd5b506103b260048036038101906103ad9190614375565b610e5b565b005b3480156103c057600080fd5b506103c9611145565b6040516103d6919061443a565b60405180910390f35b3480156103eb57600080fd5b5061040660048036038101906104019190614455565b61114f565b005b34801561041457600080fd5b5061042f600480360381019061042a9190614455565b611238565b005b34801561043d57600080fd5b5061045860048036038101906104539190614482565b611284565b60405161046591906143d0565b60405180910390f35b34801561047a57600080fd5b5061049560048036038101906104909190614455565b6112b3565b6040516104a2919061443a565b60405180910390f35b3480156104b757600080fd5b506104d260048036038101906104cd91906144d5565b6112fc565b005b3480156104e057600080fd5b506104fb60048036038101906104f69190614375565b611482565b005b34801561050957600080fd5b506105126116a8565b60405161051f919061451e565b60405180910390f35b34801561053457600080fd5b5061054f600480360381019061054a9190614375565b6116b1565b60405161055c91906143d0565b60405180910390f35b34801561057157600080fd5b5061058c60048036038101906105879190614375565b6116e8565b005b34801561059a57600080fd5b506105b560048036038101906105b091906144d5565b6116fe565b005b3480156105c357600080fd5b506105de60048036038101906105d99190614539565b611712565b005b3480156105ec57600080fd5b50610607600480360381019061060291906144d5565b6117b8565b005b34801561061557600080fd5b50610630600480360381019061062b9190614375565b611944565b005b34801561063e57600080fd5b5061065960048036038101906106549190614455565b611b5b565b604051610666919061443a565b60405180910390f35b34801561067b57600080fd5b50610696600480360381019061069191906145b1565b611ba4565b005b3480156106a457600080fd5b506106bf60048036038101906106ba91906144d5565b611bbf565b005b3480156106cd57600080fd5b506106d6611c15565b6040516106e3919061443a565b60405180910390f35b3480156106f857600080fd5b50610713600480360381019061070e9190614455565b611c1d565b604051610720919061443a565b60405180910390f35b34801561073557600080fd5b5061073e611c66565b005b34801561074c57600080fd5b50610755611c7a565b604051610762919061443a565b60405180910390f35b34801561077757600080fd5b50610792600480360381019061078d9190614375565b611c84565b005b3480156107a057600080fd5b506107bb60048036038101906107b69190614455565b611ca4565b6040516107c8919061443a565b60405180910390f35b3480156107dd57600080fd5b506107e6611cbc565b005b3480156107f457600080fd5b5061080f600480360381019061080a91906143eb565b611e76565b005b34801561081d57600080fd5b5061083860048036038101906108339190614482565b612056565b005b34801561084657600080fd5b50610861600480360381019061085c9190614375565b6123f1565b005b34801561086f57600080fd5b5061087861264b565b604051610885919061465f565b60405180910390f35b34801561089a57600080fd5b506108a3612675565b6040516108b0919061465f565b60405180910390f35b3480156108c557600080fd5b506108ce61269f565b6040516108db9190614015565b60405180910390f35b3480156108f057600080fd5b5061090b60048036038101906109069190614375565b612731565b005b34801561091957600080fd5b50610934600480360381019061092f9190614455565b612935565b604051610941919061443a565b60405180910390f35b34801561095657600080fd5b50610971600480360381019061096c9190614375565b61294d565b005b34801561097f57600080fd5b5061099a60048036038101906109959190614482565b612b4f565b005b3480156109a857600080fd5b506109c360048036038101906109be9190614375565b612f58565b6040516109d091906143d0565b60405180910390f35b3480156109e557600080fd5b50610a0060048036038101906109fb9190614375565b612fcf565b604051610a0d91906143d0565b60405180910390f35b348015610a2257600080fd5b50610a3d6004803603810190610a3891906143eb565b612ff2565b604051610a4a919061443a565b60405180910390f35b610a5b613017565b005b348015610a6957600080fd5b50610a846004803603810190610a7f9190614375565b61310a565b005b348015610a9257600080fd5b50610a9b61330e565b604051610aa8919061443a565b60405180910390f35b348015610abd57600080fd5b50610ad86004803603810190610ad391906143eb565b613318565b604051610ae5919061443a565b60405180910390f35b348015610afa57600080fd5b50610b156004803603810190610b109190614455565b61339f565b005b348015610b2357600080fd5b50610b3e6004803603810190610b39919061467a565b613422565b005b60003411610b83576040517f08c379a0000000000000000000000000000000000000000000000000000000008152600401610b7a90614753565b60405180910390fd5b3460c9600060ca60009054906101000a900473ffffffffffffffffffffffffffffffffffffffff1673ffffffffffffffffffffffffffffffffffffffff1673ffffffffffffffffffffffffffffffffffffffff1681526020019081526020016000206000828254610bf491906147a2565b92505081905550610c2760ca60009054906101000a900473ffffffffffffffffffffffffffffffffffffffff163461343d565b3373ffffffffffffffffffffffffffffffffffffffff167fe1fffcc4923d04b559f4d29a8bfc6cda04eb5b0d3c460751c2402c5c5cc9109c34604051610c6d919061443a565b60405180910390a2565b606060368054610c8690614805565b80601f0160208091040260200160405190810160405280929190818152602001828054610cb290614805565b8015610cff5780601f10610cd457610100808354040283529160200191610cff565b820191906000526020600020905b815481529060010190602001808311610ce257829003601f168201915b5050505050905090565b8051825114610d4d576040517f08c379a0000000000000000000000000000000000000000000000000000000008152600401610d4490614882565b60405180910390fd5b60005b8251811015610dab57610d9884848381518110610d7057610d6f6148a2565b5b6020026020010151848481518110610d8b57610d8a6148a2565b5b6020026020010151612056565b8080610da3906148d1565b915050610d50565b50505050565b600080610dbc613594565b9050610dc981858561359c565b600191505092915050565b600060ce60008373ffffffffffffffffffffffffffffffffffffffff1673ffffffffffffffffffffffffffffffffffffffff16815260200190815260200160002060008473ffffffffffffffffffffffffffffffffffffffff1673ffffffffffffffffffffffffffffffffffffffff16815260200190815260200160002054905092915050565b610e63613765565b600073ffffffffffffffffffffffffffffffffffffffff168273ffffffffffffffffffffffffffffffffffffffff1603610ed2576040517f08c379a0000000000000000000000000000000000000000000000000000000008152600401610ec990614965565b60405180910390fd5b600081118015610f43575060c9600060ca60009054906101000a900473ffffffffffffffffffffffffffffffffffffffff1673ffffffffffffffffffffffffffffffffffffffff1673ffffffffffffffffffffffffffffffffffffffff168152602001908152602001600020548111155b610f82576040517f08c379a0000000000000000000000000000000000000000000000000000000008152600401610f79906149d1565b60405180910390fd5b6000606460cb5483610f9491906149f1565b610f9e9190614a62565b905060008183610fae9190614a93565b90508260c9600060ca60009054906101000a900473ffffffffffffffffffffffffffffffffffffffff1673ffffffffffffffffffffffffffffffffffffffff1673ffffffffffffffffffffffffffffffffffffffff16815260200190815260200160002060008282546110219190614a93565b925050819055508160cc600082825461103a91906147a2565b9250508190555061106d60ca60009054906101000a900473ffffffffffffffffffffffffffffffffffffffff16846137e3565b8373ffffffffffffffffffffffffffffffffffffffff166108fc829081150290604051600060405180830381858888f193505050501580156110b3573d6000803e3d6000fd5b508373ffffffffffffffffffffffffffffffffffffffff1660ca60009054906101000a900473ffffffffffffffffffffffffffffffffffffffff1673ffffffffffffffffffffffffffffffffffffffff167fa856d9e39febebc9acaf7016917c5eff0da612e036ddaac5cf5b10b07c8a0f268360cc54604051611137929190614ac7565b60405180910390a350505050565b6000603554905090565b611157613765565b600060cc541161119c576040517f08c379a000000000000000000000000000000000000000000000000000000000815260040161119390614b3c565b60405180910390fd5b8073ffffffffffffffffffffffffffffffffffffffff166108fc60cc549081150290604051600060405180830381858888f193505050501580156111e4573d6000803e3d6000fd5b508073ffffffffffffffffffffffffffffffffffffffff167f66bf9186b00db666fc37aaffbb95a050c66e599e000c785c1dff0467d868f1b160cc5460405161122d919061443a565b60405180910390a250565b611240613765565b8060ca60006101000a81548173ffffffffffffffffffffffffffffffffffffffff021916908373ffffffffffffffffffffffffffffffffffffffff16021790555050565b60008061128f613594565b905061129c8582856139b2565b6112a7858585613a3e565b60019150509392505050565b600060c960008373ffffffffffffffffffffffffffffffffffffffff1673ffffffffffffffffffffffffffffffffffffffff168152602001908152602001600020549050919050565b60008111801561134b575060c960003373ffffffffffffffffffffffffffffffffffffffff1673ffffffffffffffffffffffffffffffffffffffff168152602001908152602001600020548111155b61138a576040517f08c379a000000000000000000000000000000000000000000000000000000000815260040161138190614ba8565b60405180910390fd5b8060c960003373ffffffffffffffffffffffffffffffffffffffff1673ffffffffffffffffffffffffffffffffffffffff16815260200190815260200160002060008282546113d99190614a93565b925050819055506113ea33826137e3565b3373ffffffffffffffffffffffffffffffffffffffff166108fc829081150290604051600060405180830381858888f19350505050158015611430573d6000803e3d6000fd5b503373ffffffffffffffffffffffffffffffffffffffff167f884edad9ce6fa2440d8a54cc123490eb96d2768479d49ff9c7366125a942436482604051611477919061443a565b60405180910390a250565b600081116114c5576040517f08c379a00000000000000000000000000000000000000000000000000000000081526004016114bc90614753565b60405180910390fd5b60008290508073ffffffffffffffffffffffffffffffffffffffff166323b872dd3330856040518463ffffffff1660e01b815260040161150793929190614bc8565b6020604051808303816000875af1158015611526573d6000803e3d6000fd5b505050506040513d601f19601f8201168201806040525081019061154a9190614c2b565b611589576040517f08c379a000000000000000000000000000000000000000000000000000000000815260040161158090614ca4565b60405180910390fd5b8160ce600060ca60009054906101000a900473ffffffffffffffffffffffffffffffffffffffff1673ffffffffffffffffffffffffffffffffffffffff1673ffffffffffffffffffffffffffffffffffffffff16815260200190815260200160002060008573ffffffffffffffffffffffffffffffffffffffff1673ffffffffffffffffffffffffffffffffffffffff168152602001908152602001600020600082825461163791906147a2565b925050819055503373ffffffffffffffffffffffffffffffffffffffff168373ffffffffffffffffffffffffffffffffffffffff167f2dfd2dfb41de1102485c9a50c6005dae2cdad90016d81a39c7691e941799151a8460405161169b919061443a565b60405180910390a3505050565b60006012905090565b6000806116bc613594565b90506116dd8185856116ce8589613318565b6116d891906147a2565b61359c565b600191505092915050565b6116f0613765565b6116fa828261343d565b5050565b61170f611709613594565b826137e3565b50565b8051825114611756576040517f08c379a000000000000000000000000000000000000000000000000000000000815260040161174d90614882565b60405180910390fd5b60005b82518110156117b3576117a0838281518110611778576117776148a2565b5b6020026020010151838381518110611793576117926148a2565b5b60200260200101516123f1565b80806117ab906148d1565b915050611759565b505050565b600081118015611807575060c960003373ffffffffffffffffffffffffffffffffffffffff1673ffffffffffffffffffffffffffffffffffffffff168152602001908152602001600020548111155b611846576040517f08c379a000000000000000000000000000000000000000000000000000000000815260040161183d90614d10565b60405180910390fd5b8060c960003373ffffffffffffffffffffffffffffffffffffffff1673ffffffffffffffffffffffffffffffffffffffff16815260200190815260200160002060008282546118959190614a93565b925050819055508060c9600060ca60009054906101000a900473ffffffffffffffffffffffffffffffffffffffff1673ffffffffffffffffffffffffffffffffffffffff1673ffffffffffffffffffffffffffffffffffffffff168152602001908152602001600020600082825461190d91906147a2565b925050819055506119413360ca60009054906101000a900473ffffffffffffffffffffffffffffffffffffffff1683613a3e565b50565b6000811180156119d0575060ce60003373ffffffffffffffffffffffffffffffffffffffff1673ffffffffffffffffffffffffffffffffffffffff16815260200190815260200160002060008373ffffffffffffffffffffffffffffffffffffffff1673ffffffffffffffffffffffffffffffffffffffff168152602001908152602001600020548111155b611a0f576040517f08c379a0000000000000000000000000000000000000000000000000000000008152600401611a0690614d10565b60405180910390fd5b8060ce60003373ffffffffffffffffffffffffffffffffffffffff1673ffffffffffffffffffffffffffffffffffffffff16815260200190815260200160002060008473ffffffffffffffffffffffffffffffffffffffff1673ffffffffffffffffffffffffffffffffffffffff1681526020019081526020016000206000828254611a9b9190614a93565b925050819055508060ce600060ca60009054906101000a900473ffffffffffffffffffffffffffffffffffffffff1673ffffffffffffffffffffffffffffffffffffffff1673ffffffffffffffffffffffffffffffffffffffff16815260200190815260200160002060008473ffffffffffffffffffffffffffffffffffffffff1673ffffffffffffffffffffffffffffffffffffffff1681526020019081526020016000206000828254611b5091906147a2565b925050819055505050565b600060cd60008373ffffffffffffffffffffffffffffffffffffffff1673ffffffffffffffffffffffffffffffffffffffff168152602001908152602001600020549050919050565b611bae8484612731565b611bb9848383610d09565b50505050565b611bc7613765565b6064811115611c0b576040517f08c379a0000000000000000000000000000000000000000000000000000000008152600401611c0290614da2565b60405180910390fd5b8060cb8190555050565b600047905090565b6000603360008373ffffffffffffffffffffffffffffffffffffffff1673ffffffffffffffffffffffffffffffffffffffff168152602001908152602001600020549050919050565b611c6e613765565b611c786000613cb7565b565b600060cb54905090565b611c9682611c90613594565b836139b2565b611ca082826137e3565b5050565b60c96020528060005260406000206000915090505481565b60008060019054906101000a900460ff16159050808015611ced5750600160008054906101000a900460ff1660ff16105b80611d1a5750611cfc30613d7d565b158015611d195750600160008054906101000a900460ff1660ff16145b5b611d59576040517f08c379a0000000000000000000000000000000000000000000000000000000008152600401611d5090614e34565b60405180910390fd5b60016000806101000a81548160ff021916908360ff1602179055508015611d96576001600060016101000a81548160ff0219169083151502179055505b611e0a6040518060400160405280600781526020017f42545420544950000000000000000000000000000000000000000000000000008152506040518060400160405280600381526020017f5449500000000000000000000000000000000000000000000000000000000000815250613da0565b611e12613dfd565b611e1a613e4e565b8015611e735760008060016101000a81548160ff0219169083151502179055507f7f26b83ff96e1f2b6a682f133852f6798a09c465da95921460cefb38474024986001604051611e6a9190614e99565b60405180910390a15b50565b611e7e613765565b600060cd60008473ffffffffffffffffffffffffffffffffffffffff1673ffffffffffffffffffffffffffffffffffffffff1681526020019081526020016000205411611f00576040517f08c379a0000000000000000000000000000000000000000000000000000000008152600401611ef790614b3c565b60405180910390fd5b60008290508073ffffffffffffffffffffffffffffffffffffffff1663a9059cbb8360cd60008773ffffffffffffffffffffffffffffffffffffffff1673ffffffffffffffffffffffffffffffffffffffff168152602001908152602001600020546040518363ffffffff1660e01b8152600401611f7f929190614eb4565b6020604051808303816000875af1158015611f9e573d6000803e3d6000fd5b505050506040513d601f19601f82011682018060405250810190611fc29190614c2b565b612001576040517f08c379a0000000000000000000000000000000000000000000000000000000008152600401611ff890614ca4565b60405180910390fd5b8173ffffffffffffffffffffffffffffffffffffffff167f66bf9186b00db666fc37aaffbb95a050c66e599e000c785c1dff0467d868f1b160cc54604051612049919061443a565b60405180910390a2505050565b600073ffffffffffffffffffffffffffffffffffffffff168273ffffffffffffffffffffffffffffffffffffffff16036120c5576040517f08c379a00000000000000000000000000000000000000000000000000000000081526004016120bc90614965565b60405180910390fd5b600081118015612151575060ce60003373ffffffffffffffffffffffffffffffffffffffff1673ffffffffffffffffffffffffffffffffffffffff16815260200190815260200160002060008473ffffffffffffffffffffffffffffffffffffffff1673ffffffffffffffffffffffffffffffffffffffff168152602001908152602001600020548111155b612190576040517f08c379a0000000000000000000000000000000000000000000000000000000008152600401612187906149d1565b60405180910390fd5b6000606460cb54836121a291906149f1565b6121ac9190614a62565b9050600081836121bc9190614a93565b90508260ce60003373ffffffffffffffffffffffffffffffffffffffff1673ffffffffffffffffffffffffffffffffffffffff16815260200190815260200160002060008773ffffffffffffffffffffffffffffffffffffffff1673ffffffffffffffffffffffffffffffffffffffff168152602001908152602001600020600082825461224a9190614a93565b925050819055508160cd60008773ffffffffffffffffffffffffffffffffffffffff1673ffffffffffffffffffffffffffffffffffffffff16815260200190815260200160002060008282546122a091906147a2565b9250508190555060008590508073ffffffffffffffffffffffffffffffffffffffff1663a9059cbb86846040518363ffffffff1660e01b81526004016122e7929190614eb4565b6020604051808303816000875af1158015612306573d6000803e3d6000fd5b505050506040513d601f19601f8201168201806040525081019061232a9190614c2b565b612369576040517f08c379a000000000000000000000000000000000000000000000000000000000815260040161236090614ca4565b60405180910390fd5b8473ffffffffffffffffffffffffffffffffffffffff163373ffffffffffffffffffffffffffffffffffffffff168773ffffffffffffffffffffffffffffffffffffffff167fa37f6f6692a3f1a119edc128b26a938c22db0dcb1d8d69649e49f0470a6f03308560cc546040516123e1929190614ac7565b60405180910390a4505050505050565b600073ffffffffffffffffffffffffffffffffffffffff168273ffffffffffffffffffffffffffffffffffffffff1603612460576040517f08c379a000000000000000000000000000000000000000000000000000000000815260040161245790614965565b60405180910390fd5b6000811180156124af575060c960003373ffffffffffffffffffffffffffffffffffffffff1673ffffffffffffffffffffffffffffffffffffffff168152602001908152602001600020548111155b6124ee576040517f08c379a00000000000000000000000000000000000000000000000000000000081526004016124e5906149d1565b60405180910390fd5b6000606460cb548361250091906149f1565b61250a9190614a62565b90506000818361251a9190614a93565b90508260c960003373ffffffffffffffffffffffffffffffffffffffff1673ffffffffffffffffffffffffffffffffffffffff168152602001908152602001600020600082825461256b9190614a93565b925050819055508160cc600082825461258491906147a2565b9250508190555061259533846137e3565b8373ffffffffffffffffffffffffffffffffffffffff166108fc829081150290604051600060405180830381858888f193505050501580156125db573d6000803e3d6000fd5b508373ffffffffffffffffffffffffffffffffffffffff163373ffffffffffffffffffffffffffffffffffffffff167fa856d9e39febebc9acaf7016917c5eff0da612e036ddaac5cf5b10b07c8a0f268360cc5460405161263d929190614ac7565b60405180910390a350505050565b6000609760009054906101000a900473ffffffffffffffffffffffffffffffffffffffff16905090565b600060ca60009054906101000a900473ffffffffffffffffffffffffffffffffffffffff16905090565b6060603780546126ae90614805565b80601f01602080910402602001604051908101604052809291908181526020018280546126da90614805565b80156127275780601f106126fc57610100808354040283529160200191612727565b820191906000526020600020905b81548152906001019060200180831161270a57829003601f168201915b5050505050905090565b60008111612774576040517f08c379a000000000000000000000000000000000000000000000000000000000815260040161276b90614753565b60405180910390fd5b60008290508073ffffffffffffffffffffffffffffffffffffffff166323b872dd3330856040518463ffffffff1660e01b81526004016127b693929190614bc8565b6020604051808303816000875af11580156127d5573d6000803e3d6000fd5b505050506040513d601f19601f820116820180604052508101906127f99190614c2b565b612838576040517f08c379a000000000000000000000000000000000000000000000000000000000815260040161282f90614ca4565b60405180910390fd5b8160ce60003373ffffffffffffffffffffffffffffffffffffffff1673ffffffffffffffffffffffffffffffffffffffff16815260200190815260200160002060008573ffffffffffffffffffffffffffffffffffffffff1673ffffffffffffffffffffffffffffffffffffffff16815260200190815260200160002060008282546128c491906147a2565b925050819055503373ffffffffffffffffffffffffffffffffffffffff168373ffffffffffffffffffffffffffffffffffffffff167f2dfd2dfb41de1102485c9a50c6005dae2cdad90016d81a39c7691e941799151a84604051612928919061443a565b60405180910390a3505050565b60cd6020528060005260406000206000915090505481565b60008111612990576040517f08c379a000000000000000000000000000000000000000000000000000000000815260040161298790614753565b60405180910390fd5b60008290508073ffffffffffffffffffffffffffffffffffffffff1663a9059cbb33846040518363ffffffff1660e01b81526004016129d0929190614eb4565b6020604051808303816000875af11580156129ef573d6000803e3d6000fd5b505050506040513d601f19601f82011682018060405250810190612a139190614c2b565b612a52576040517f08c379a0000000000000000000000000000000000000000000000000000000008152600401612a4990614ca4565b60405180910390fd5b8160ce60003373ffffffffffffffffffffffffffffffffffffffff1673ffffffffffffffffffffffffffffffffffffffff16815260200190815260200160002060008573ffffffffffffffffffffffffffffffffffffffff1673ffffffffffffffffffffffffffffffffffffffff1681526020019081526020016000206000828254612ade9190614a93565b925050819055503373ffffffffffffffffffffffffffffffffffffffff168373ffffffffffffffffffffffffffffffffffffffff167f33c35f9541201e342d5e7467016e65a0a06182eb12a5f17103f71cec95b6cb2984604051612b42919061443a565b60405180910390a3505050565b612b57613765565b600073ffffffffffffffffffffffffffffffffffffffff168273ffffffffffffffffffffffffffffffffffffffff1603612bc6576040517f08c379a0000000000000000000000000000000000000000000000000000000008152600401612bbd90614965565b60405180910390fd5b600081118015612c74575060ce600060ca60009054906101000a900473ffffffffffffffffffffffffffffffffffffffff1673ffffffffffffffffffffffffffffffffffffffff1673ffffffffffffffffffffffffffffffffffffffff16815260200190815260200160002060008473ffffffffffffffffffffffffffffffffffffffff1673ffffffffffffffffffffffffffffffffffffffff168152602001908152602001600020548111155b612cb3576040517f08c379a0000000000000000000000000000000000000000000000000000000008152600401612caa906149d1565b60405180910390fd5b6000606460cb5483612cc591906149f1565b612ccf9190614a62565b905060008183612cdf9190614a93565b90508260ce600060ca60009054906101000a900473ffffffffffffffffffffffffffffffffffffffff1673ffffffffffffffffffffffffffffffffffffffff1673ffffffffffffffffffffffffffffffffffffffff16815260200190815260200160002060008773ffffffffffffffffffffffffffffffffffffffff1673ffffffffffffffffffffffffffffffffffffffff1681526020019081526020016000206000828254612d8f9190614a93565b925050819055508160cd60008773ffffffffffffffffffffffffffffffffffffffff1673ffffffffffffffffffffffffffffffffffffffff1681526020019081526020016000206000828254612de591906147a2565b9250508190555060008590508073ffffffffffffffffffffffffffffffffffffffff1663a9059cbb86846040518363ffffffff1660e01b8152600401612e2c929190614eb4565b6020604051808303816000875af1158015612e4b573d6000803e3d6000fd5b505050506040513d601f19601f82011682018060405250810190612e6f9190614c2b565b612eae576040517f08c379a0000000000000000000000000000000000000000000000000000000008152600401612ea590614ca4565b60405180910390fd5b8473ffffffffffffffffffffffffffffffffffffffff1660ca60009054906101000a900473ffffffffffffffffffffffffffffffffffffffff1673ffffffffffffffffffffffffffffffffffffffff168773ffffffffffffffffffffffffffffffffffffffff167fa37f6f6692a3f1a119edc128b26a938c22db0dcb1d8d69649e49f0470a6f03308560cc54604051612f48929190614ac7565b60405180910390a4505050505050565b600080612f63613594565b90506000612f718286613318565b905083811015612fb6576040517f08c379a0000000000000000000000000000000000000000000000000000000008152600401612fad90614f4f565b60405180910390fd5b612fc3828686840361359c565b60019250505092915050565b600080612fda613594565b9050612fe7818585613a3e565b600191505092915050565b60ce602052816000526040600020602052806000526040600020600091509150505481565b6000341161305a576040517f08c379a000000000000000000000000000000000000000000000000000000000815260040161305190614753565b60405180910390fd5b3460c960003373ffffffffffffffffffffffffffffffffffffffff1673ffffffffffffffffffffffffffffffffffffffff16815260200190815260200160002060008282546130a991906147a2565b925050819055506130ba333461343d565b3373ffffffffffffffffffffffffffffffffffffffff167fe1fffcc4923d04b559f4d29a8bfc6cda04eb5b0d3c460751c2402c5c5cc9109c34604051613100919061443a565b60405180910390a2565b613112613765565b600073ffffffffffffffffffffffffffffffffffffffff168273ffffffffffffffffffffffffffffffffffffffff1603613181576040517f08c379a000000000000000000000000000000000000000000000000000000000815260040161317890614fbb565b60405180910390fd5b6000811180156131d0575060c960008373ffffffffffffffffffffffffffffffffffffffff1673ffffffffffffffffffffffffffffffffffffffff168152602001908152602001600020548111155b61320f576040517f08c379a000000000000000000000000000000000000000000000000000000000815260040161320690614d10565b60405180910390fd5b8060c960008473ffffffffffffffffffffffffffffffffffffffff1673ffffffffffffffffffffffffffffffffffffffff168152602001908152602001600020600082825461325e9190614a93565b925050819055508060c9600060ca60009054906101000a900473ffffffffffffffffffffffffffffffffffffffff1673ffffffffffffffffffffffffffffffffffffffff1673ffffffffffffffffffffffffffffffffffffffff16815260200190815260200160002060008282546132d691906147a2565b9250508190555061330a8260ca60009054906101000a900473ffffffffffffffffffffffffffffffffffffffff1683613a3e565b5050565b600060cc54905090565b6000603460008473ffffffffffffffffffffffffffffffffffffffff1673ffffffffffffffffffffffffffffffffffffffff16815260200190815260200160002060008373ffffffffffffffffffffffffffffffffffffffff1673ffffffffffffffffffffffffffffffffffffffff16815260200190815260200160002054905092915050565b6133a7613765565b600073ffffffffffffffffffffffffffffffffffffffff168173ffffffffffffffffffffffffffffffffffffffff1603613416576040517f08c379a000000000000000000000000000000000000000000000000000000000815260040161340d9061504d565b60405180910390fd5b61341f81613cb7565b50565b61342c8484612731565b613437848383612056565b50505050565b600073ffffffffffffffffffffffffffffffffffffffff168273ffffffffffffffffffffffffffffffffffffffff16036134ac576040517f08c379a00000000000000000000000000000000000000000000000000000000081526004016134a3906150b9565b60405180910390fd5b6134b860008383613ea7565b80603560008282546134ca91906147a2565b9250508190555080603360008473ffffffffffffffffffffffffffffffffffffffff1673ffffffffffffffffffffffffffffffffffffffff168152602001908152602001600020600082825401925050819055508173ffffffffffffffffffffffffffffffffffffffff16600073ffffffffffffffffffffffffffffffffffffffff167fddf252ad1be2c89b69c2b068fc378daa952ba7f163c4a11628f55a4df523b3ef8360405161357c919061443a565b60405180910390a361359060008383613eac565b5050565b600033905090565b600073ffffffffffffffffffffffffffffffffffffffff168373ffffffffffffffffffffffffffffffffffffffff160361360b576040517f08c379a00000000000000000000000000000000000000000000000000000000081526004016136029061514b565b60405180910390fd5b600073ffffffffffffffffffffffffffffffffffffffff168273ffffffffffffffffffffffffffffffffffffffff160361367a576040517f08c379a0000000000000000000000000000000000000000000000000000000008152600401613671906151dd565b60405180910390fd5b80603460008573ffffffffffffffffffffffffffffffffffffffff1673ffffffffffffffffffffffffffffffffffffffff16815260200190815260200160002060008473ffffffffffffffffffffffffffffffffffffffff1673ffffffffffffffffffffffffffffffffffffffff168152602001908152602001600020819055508173ffffffffffffffffffffffffffffffffffffffff168373ffffffffffffffffffffffffffffffffffffffff167f8c5be1e5ebec7d5bd14f71427d1e84f3dd0314c0f7b2291e5b200ac8c7c3b92583604051613758919061443a565b60405180910390a3505050565b61376d613594565b73ffffffffffffffffffffffffffffffffffffffff1661378b61264b565b73ffffffffffffffffffffffffffffffffffffffff16146137e1576040517f08c379a00000000000000000000000000000000000000000000000000000000081526004016137d890615249565b60405180910390fd5b565b600073ffffffffffffffffffffffffffffffffffffffff168273ffffffffffffffffffffffffffffffffffffffff1603613852576040517f08c379a0000000000000000000000000000000000000000000000000000000008152600401613849906152db565b60405180910390fd5b61385e82600083613ea7565b6000603360008473ffffffffffffffffffffffffffffffffffffffff1673ffffffffffffffffffffffffffffffffffffffff168152602001908152602001600020549050818110156138e5576040517f08c379a00000000000000000000000000000000000000000000000000000000081526004016138dc9061536d565b60405180910390fd5b818103603360008573ffffffffffffffffffffffffffffffffffffffff1673ffffffffffffffffffffffffffffffffffffffff1681526020019081526020016000208190555081603560008282540392505081905550600073ffffffffffffffffffffffffffffffffffffffff168373ffffffffffffffffffffffffffffffffffffffff167fddf252ad1be2c89b69c2b068fc378daa952ba7f163c4a11628f55a4df523b3ef84604051613999919061443a565b60405180910390a36139ad83600084613eac565b505050565b60006139be8484613318565b90507fffffffffffffffffffffffffffffffffffffffffffffffffffffffffffffffff8114613a385781811015613a2a576040517f08c379a0000000000000000000000000000000000000000000000000000000008152600401613a21906153d9565b60405180910390fd5b613a37848484840361359c565b5b50505050565b600073ffffffffffffffffffffffffffffffffffffffff168373ffffffffffffffffffffffffffffffffffffffff1603613aad576040517f08c379a0000000000000000000000000000000000000000000000000000000008152600401613aa49061546b565b60405180910390fd5b600073ffffffffffffffffffffffffffffffffffffffff168273ffffffffffffffffffffffffffffffffffffffff1603613b1c576040517f08c379a0000000000000000000000000000000000000000000000000000000008152600401613b13906154fd565b60405180910390fd5b613b27838383613ea7565b6000603360008573ffffffffffffffffffffffffffffffffffffffff1673ffffffffffffffffffffffffffffffffffffffff16815260200190815260200160002054905081811015613bae576040517f08c379a0000000000000000000000000000000000000000000000000000000008152600401613ba59061558f565b60405180910390fd5b818103603360008673ffffffffffffffffffffffffffffffffffffffff1673ffffffffffffffffffffffffffffffffffffffff1681526020019081526020016000208190555081603360008573ffffffffffffffffffffffffffffffffffffffff1673ffffffffffffffffffffffffffffffffffffffff168152602001908152602001600020600082825401925050819055508273ffffffffffffffffffffffffffffffffffffffff168473ffffffffffffffffffffffffffffffffffffffff167fddf252ad1be2c89b69c2b068fc378daa952ba7f163c4a11628f55a4df523b3ef84604051613c9e919061443a565b60405180910390a3613cb1848484613eac565b50505050565b6000609760009054906101000a900473ffffffffffffffffffffffffffffffffffffffff16905081609760006101000a81548173ffffffffffffffffffffffffffffffffffffffff021916908373ffffffffffffffffffffffffffffffffffffffff1602179055508173ffffffffffffffffffffffffffffffffffffffff168173ffffffffffffffffffffffffffffffffffffffff167f8be0079c531659141344cd1fd0a4f28419497f9722a3daafe3b4186f6b6457e060405160405180910390a35050565b6000808273ffffffffffffffffffffffffffffffffffffffff163b119050919050565b600060019054906101000a900460ff16613def576040517f08c379a0000000000000000000000000000000000000000000000000000000008152600401613de690615621565b60405180910390fd5b613df98282613eb1565b5050565b600060019054906101000a900460ff16613e4c576040517f08c379a0000000000000000000000000000000000000000000000000000000008152600401613e4390615621565b60405180910390fd5b565b600060019054906101000a900460ff16613e9d576040517f08c379a0000000000000000000000000000000000000000000000000000000008152600401613e9490615621565b60405180910390fd5b613ea5613f24565b565b505050565b505050565b600060019054906101000a900460ff16613f00576040517f08c379a0000000000000000000000000000000000000000000000000000000008152600401613ef790615621565b60405180910390fd5b8160369081613f0f91906157e3565b508060379081613f1f91906157e3565b505050565b600060019054906101000a900460ff16613f73576040517f08c379a0000000000000000000000000000000000000000000000000000000008152600401613f6a90615621565b60405180910390fd5b613f83613f7e613594565b613cb7565b565b600081519050919050565b600082825260208201905092915050565b60005b83811015613fbf578082015181840152602081019050613fa4565b60008484015250505050565b6000601f19601f8301169050919050565b6000613fe782613f85565b613ff18185613f90565b9350614001818560208601613fa1565b61400a81613fcb565b840191505092915050565b6000602082019050818103600083015261402f8184613fdc565b905092915050565b6000604051905090565b600080fd5b600080fd5b600073ffffffffffffffffffffffffffffffffffffffff82169050919050565b60006140768261404b565b9050919050565b6140868161406b565b811461409157600080fd5b50565b6000813590506140a38161407d565b92915050565b600080fd5b7f4e487b7100000000000000000000000000000000000000000000000000000000600052604160045260246000fd5b6140e682613fcb565b810181811067ffffffffffffffff82111715614105576141046140ae565b5b80604052505050565b6000614118614037565b905061412482826140dd565b919050565b600067ffffffffffffffff821115614144576141436140ae565b5b602082029050602081019050919050565b600080fd5b600061416d61416884614129565b61410e565b905080838252602082019050602084028301858111156141905761418f614155565b5b835b818110156141b957806141a58882614094565b845260208401935050602081019050614192565b5050509392505050565b600082601f8301126141d8576141d76140a9565b5b81356141e884826020860161415a565b91505092915050565b600067ffffffffffffffff82111561420c5761420b6140ae565b5b602082029050602081019050919050565b6000819050919050565b6142308161421d565b811461423b57600080fd5b50565b60008135905061424d81614227565b92915050565b6000614266614261846141f1565b61410e565b9050808382526020820190506020840283018581111561428957614288614155565b5b835b818110156142b2578061429e888261423e565b84526020840193505060208101905061428b565b5050509392505050565b600082601f8301126142d1576142d06140a9565b5b81356142e1848260208601614253565b91505092915050565b60008060006060848603121561430357614302614041565b5b600061431186828701614094565b935050602084013567ffffffffffffffff81111561433257614331614046565b5b61433e868287016141c3565b925050604084013567ffffffffffffffff81111561435f5761435e614046565b5b61436b868287016142bc565b9150509250925092565b6000806040838503121561438c5761438b614041565b5b600061439a85828601614094565b92505060206143ab8582860161423e565b9150509250929050565b60008115159050919050565b6143ca816143b5565b82525050565b60006020820190506143e560008301846143c1565b92915050565b6000806040838503121561440257614401614041565b5b600061441085828601614094565b925050602061442185828601614094565b9150509250929050565b6144348161421d565b82525050565b600060208201905061444f600083018461442b565b92915050565b60006020828403121561446b5761446a614041565b5b600061447984828501614094565b91505092915050565b60008060006060848603121561449b5761449a614041565b5b60006144a986828701614094565b93505060206144ba86828701614094565b92505060406144cb8682870161423e565b9150509250925092565b6000602082840312156144eb576144ea614041565b5b60006144f98482850161423e565b91505092915050565b600060ff82169050919050565b61451881614502565b82525050565b6000602082019050614533600083018461450f565b92915050565b600080604083850312156145505761454f614041565b5b600083013567ffffffffffffffff81111561456e5761456d614046565b5b61457a858286016141c3565b925050602083013567ffffffffffffffff81111561459b5761459a614046565b5b6145a7858286016142bc565b9150509250929050565b600080600080608085870312156145cb576145ca614041565b5b60006145d987828801614094565b94505060206145ea8782880161423e565b935050604085013567ffffffffffffffff81111561460b5761460a614046565b5b614617878288016141c3565b925050606085013567ffffffffffffffff81111561463857614637614046565b5b614644878288016142bc565b91505092959194509250565b6146598161406b565b82525050565b60006020820190506146746000830184614650565b92915050565b6000806000806080858703121561469457614693614041565b5b60006146a287828801614094565b94505060206146b38782880161423e565b93505060406146c487828801614094565b92505060606146d58782880161423e565b91505092959194509250565b7f4465706f7369742076616c7565206d757374206265206772656174657220746860008201527f616e207a65726f00000000000000000000000000000000000000000000000000602082015250565b600061473d602783613f90565b9150614748826146e1565b604082019050919050565b6000602082019050818103600083015261476c81614730565b9050919050565b7f4e487b7100000000000000000000000000000000000000000000000000000000600052601160045260246000fd5b60006147ad8261421d565b91506147b88361421d565b92508282019050808211156147d0576147cf614773565b5b92915050565b7f4e487b7100000000000000000000000000000000000000000000000000000000600052602260045260246000fd5b6000600282049050600182168061481d57607f821691505b6020821081036148305761482f6147d6565b5b50919050565b7f496e76616c696420696e707574206c656e677468000000000000000000000000600082015250565b600061486c601483613f90565b915061487782614836565b602082019050919050565b6000602082019050818103600083015261489b8161485f565b9050919050565b7f4e487b7100000000000000000000000000000000000000000000000000000000600052603260045260246000fd5b60006148dc8261421d565b91507fffffffffffffffffffffffffffffffffffffffffffffffffffffffffffffffff820361490e5761490d614773565b5b600182019050919050565b7f496e76616c696420746970206164647265737300000000000000000000000000600082015250565b600061494f601383613f90565b915061495a82614919565b602082019050919050565b6000602082019050818103600083015261497e81614942565b9050919050565b7f496e76616c69642074697020616d6f756e740000000000000000000000000000600082015250565b60006149bb601283613f90565b91506149c682614985565b602082019050919050565b600060208201905081810360008301526149ea816149ae565b9050919050565b60006149fc8261421d565b9150614a078361421d565b9250828202614a158161421d565b91508282048414831517614a2c57614a2b614773565b5b5092915050565b7f4e487b7100000000000000000000000000000000000000000000000000000000600052601260045260246000fd5b6000614a6d8261421d565b9150614a788361421d565b925082614a8857614a87614a33565b5b828204905092915050565b6000614a9e8261421d565b9150614aa98361421d565b9250828203905081811115614ac157614ac0614773565b5b92915050565b6000604082019050614adc600083018561442b565b614ae9602083018461442b565b9392505050565b7f4e6f206665652062616c616e636520746f207769746864726177000000000000600082015250565b6000614b26601a83613f90565b9150614b3182614af0565b602082019050919050565b60006020820190508181036000830152614b5581614b19565b9050919050565b7f496e76616c696420776974686472617720616d6f756e74000000000000000000600082015250565b6000614b92601783613f90565b9150614b9d82614b5c565b602082019050919050565b60006020820190508181036000830152614bc181614b85565b9050919050565b6000606082019050614bdd6000830186614650565b614bea6020830185614650565b614bf7604083018461442b565b949350505050565b614c08816143b5565b8114614c1357600080fd5b50565b600081519050614c2581614bff565b92915050565b600060208284031215614c4157614c40614041565b5b6000614c4f84828501614c16565b91505092915050565b7f546f6b656e207472616e73666572206661696c65640000000000000000000000600082015250565b6000614c8e601583613f90565b9150614c9982614c58565b602082019050919050565b60006020820190508181036000830152614cbd81614c81565b9050919050565b7f496e76616c6964207769746864726177616c20616d6f756e7400000000000000600082015250565b6000614cfa601983613f90565b9150614d0582614cc4565b602082019050919050565b60006020820190508181036000830152614d2981614ced565b9050919050565b7f4665652070657263656e746167652063616e6e6f74206578636565642031303060008201527f2500000000000000000000000000000000000000000000000000000000000000602082015250565b6000614d8c602183613f90565b9150614d9782614d30565b604082019050919050565b60006020820190508181036000830152614dbb81614d7f565b9050919050565b7f496e697469616c697a61626c653a20636f6e747261637420697320616c72656160008201527f647920696e697469616c697a6564000000000000000000000000000000000000602082015250565b6000614e1e602e83613f90565b9150614e2982614dc2565b604082019050919050565b60006020820190508181036000830152614e4d81614e11565b9050919050565b6000819050919050565b6000819050919050565b6000614e83614e7e614e7984614e54565b614e5e565b614502565b9050919050565b614e9381614e68565b82525050565b6000602082019050614eae6000830184614e8a565b92915050565b6000604082019050614ec96000830185614650565b614ed6602083018461442b565b9392505050565b7f45524332303a2064656372656173656420616c6c6f77616e63652062656c6f7760008201527f207a65726f000000000000000000000000000000000000000000000000000000602082015250565b6000614f39602583613f90565b9150614f4482614edd565b604082019050919050565b60006020820190508181036000830152614f6881614f2c565b9050919050565b7f496e76616c696420696e70757420616464726573730000000000000000000000600082015250565b6000614fa5601583613f90565b9150614fb082614f6f565b602082019050919050565b60006020820190508181036000830152614fd481614f98565b9050919050565b7f4f776e61626c653a206e6577206f776e657220697320746865207a65726f206160008201527f6464726573730000000000000000000000000000000000000000000000000000602082015250565b6000615037602683613f90565b915061504282614fdb565b604082019050919050565b600060208201905081810360008301526150668161502a565b9050919050565b7f45524332303a206d696e7420746f20746865207a65726f206164647265737300600082015250565b60006150a3601f83613f90565b91506150ae8261506d565b602082019050919050565b600060208201905081810360008301526150d281615096565b9050919050565b7f45524332303a20617070726f76652066726f6d20746865207a65726f2061646460008201527f7265737300000000000000000000000000000000000000000000000000000000602082015250565b6000615135602483613f90565b9150615140826150d9565b604082019050919050565b6000602082019050818103600083015261516481615128565b9050919050565b7f45524332303a20617070726f766520746f20746865207a65726f20616464726560008201527f7373000000000000000000000000000000000000000000000000000000000000602082015250565b60006151c7602283613f90565b91506151d28261516b565b604082019050919050565b600060208201905081810360008301526151f6816151ba565b9050919050565b7f4f776e61626c653a2063616c6c6572206973206e6f7420746865206f776e6572600082015250565b6000615233602083613f90565b915061523e826151fd565b602082019050919050565b6000602082019050818103600083015261526281615226565b9050919050565b7f45524332303a206275726e2066726f6d20746865207a65726f2061646472657360008201527f7300000000000000000000000000000000000000000000000000000000000000602082015250565b60006152c5602183613f90565b91506152d082615269565b604082019050919050565b600060208201905081810360008301526152f4816152b8565b9050919050565b7f45524332303a206275726e20616d6f756e7420657863656564732062616c616e60008201527f6365000000000000000000000000000000000000000000000000000000000000602082015250565b6000615357602283613f90565b9150615362826152fb565b604082019050919050565b600060208201905081810360008301526153868161534a565b9050919050565b7f45524332303a20696e73756666696369656e7420616c6c6f77616e6365000000600082015250565b60006153c3601d83613f90565b91506153ce8261538d565b602082019050919050565b600060208201905081810360008301526153f2816153b6565b9050919050565b7f45524332303a207472616e736665722066726f6d20746865207a65726f20616460008201527f6472657373000000000000000000000000000000000000000000000000000000602082015250565b6000615455602583613f90565b9150615460826153f9565b604082019050919050565b6000602082019050818103600083015261548481615448565b9050919050565b7f45524332303a207472616e7366657220746f20746865207a65726f206164647260008201527f6573730000000000000000000000000000000000000000000000000000000000602082015250565b60006154e7602383613f90565b91506154f28261548b565b604082019050919050565b60006020820190508181036000830152615516816154da565b9050919050565b7f45524332303a207472616e7366657220616d6f756e742065786365656473206260008201527f616c616e63650000000000000000000000000000000000000000000000000000602082015250565b6000615579602683613f90565b91506155848261551d565b604082019050919050565b600060208201905081810360008301526155a88161556c565b9050919050565b7f496e697469616c697a61626c653a20636f6e7472616374206973206e6f74206960008201527f6e697469616c697a696e67000000000000000000000000000000000000000000602082015250565b600061560b602b83613f90565b9150615616826155af565b604082019050919050565b6000602082019050818103600083015261563a816155fe565b9050919050565b60008190508160005260206000209050919050565b60006020601f8301049050919050565b600082821b905092915050565b6000600883026156a37fffffffffffffffffffffffffffffffffffffffffffffffffffffffffffffffff82615666565b6156ad8683615666565b95508019841693508086168417925050509392505050565b60006156e06156db6156d68461421d565b614e5e565b61421d565b9050919050565b6000819050919050565b6156fa836156c5565b61570e615706826156e7565b848454615673565b825550505050565b600090565b615723615716565b61572e8184846156f1565b505050565b5b818110156157525761574760008261571b565b600181019050615734565b5050565b601f8211156157975761576881615641565b61577184615656565b81016020851015615780578190505b61579461578c85615656565b830182615733565b50505b505050565b600082821c905092915050565b60006157ba6000198460080261579c565b1980831691505092915050565b60006157d383836157a9565b9150826002028217905092915050565b6157ec82613f85565b67ffffffffffffffff811115615805576158046140ae565b5b61580f8254614805565b61581a828285615756565b600060209050601f83116001811461584d576000841561583b578287015190505b61584585826157c7565b8655506158ad565b601f19841661585b86615641565b60005b828110156158835784890151825560018201915060208501945060208101905061585e565b868310156158a0578489015161589c601f8916826157a9565b8355505b6001600288020188555050505b50505050505056fea264697066735822122048093315dbd82790ffa599caf8c24e9a8c787b5cc145bc83b40c128333c6c70264736f6c63430008130033",
  "linkReferences": {},
  "deployedLinkReferences": {}
}