{
  "_format": "hh-sol-artifact-1",
  "contractName": "TipBot",
  "sourceName": "contracts/TipBot.sol",
  "abi": [
    {
      "anonymous": false,
      "inputs": [
        {
          "indexed": true,
          "internalType": "address",
          "name": "owner",
          "type": "address"
        },
        {
          "indexed": true,
          "internalType": "address",
          "name": "spender",
          "type": "address"
        },
        {
          "indexed": false,
          "internalType": "uint256",
          "name": "value",
          "type": "uint256"
        }
      ],
      "name": "Approval",
      "type": "event"
    },
    {
      "anonymous": false,
      "inputs": [
        {
          "indexed": true,
          "internalType": "address",
          "name": "depositor",
          "type": "address"
        },
        {
          "indexed": false,
          "internalType": "uint256",
          "name": "value",
          "type": "uint256"
        }
      ],
      "name": "Deposit",
      "type": "event"
    },
    {
      "anonymous": false,
      "inputs": [
        {
          "indexed": true,
          "internalType": "address",
          "name": "tokenERC20",
          "type": "address"
        },
        {
          "indexed": true,
          "internalType": "address",
          "name": "depositor",
          "type": "address"
        },
        {
          "indexed": false,
          "internalType": "uint256",
          "name": "value",
          "type": "uint256"
        }
      ],
      "name": "DepositERC20",
      "type": "event"
    },
    {
      "anonymous": false,
      "inputs": [
        {
          "indexed": false,
          "internalType": "uint8",
          "name": "version",
          "type": "uint8"
        }
      ],
      "name": "Initialized",
      "type": "event"
    },
    {
      "anonymous": false,
      "inputs": [
        {
          "indexed": true,
          "internalType": "address",
          "name": "previousOwner",
          "type": "address"
        },
        {
          "indexed": true,
          "internalType": "address",
          "name": "newOwner",
          "type": "address"
        }
      ],
      "name": "OwnershipTransferred",
      "type": "event"
    },
    {
      "anonymous": false,
      "inputs": [
        {
          "indexed": true,
          "internalType": "address",
          "name": "from",
          "type": "address"
        },
        {
          "indexed": true,
          "internalType": "address",
          "name": "to",
          "type": "address"
        },
        {
          "indexed": false,
          "internalType": "uint256",
          "name": "amount",
          "type": "uint256"
        },
        {
          "indexed": false,
          "internalType": "uint256",
          "name": "feeAmount",
          "type": "uint256"
        }
      ],
      "name": "Tip",
      "type": "event"
    },
    {
      "anonymous": false,
      "inputs": [
        {
          "indexed": true,
          "internalType": "address",
          "name": "tokenERC20",
          "type": "address"
        },
        {
          "indexed": true,
          "internalType": "address",
          "name": "from",
          "type": "address"
        },
        {
          "indexed": true,
          "internalType": "address",
          "name": "to",
          "type": "address"
        },
        {
          "indexed": false,
          "internalType": "uint256",
          "name": "amount",
          "type": "uint256"
        },
        {
          "indexed": false,
          "internalType": "uint256",
          "name": "feeAmount",
          "type": "uint256"
        }
      ],
      "name": "TipERC20",
      "type": "event"
    },
    {
      "anonymous": false,
      "inputs": [
        {
          "indexed": true,
          "internalType": "address",
          "name": "from",
          "type": "address"
        },
        {
          "indexed": true,
          "internalType": "address",
          "name": "to",
          "type": "address"
        },
        {
          "indexed": false,
          "internalType": "uint256",
          "name": "value",
          "type": "uint256"
        }
      ],
      "name": "Transfer",
      "type": "event"
    },
    {
      "anonymous": false,
      "inputs": [
        {
          "indexed": true,
          "internalType": "address",
          "name": "owner",
          "type": "address"
        },
        {
          "indexed": false,
          "internalType": "uint256",
          "name": "value",
          "type": "uint256"
        }
      ],
      "name": "Withdraw",
      "type": "event"
    },
    {
      "anonymous": false,
      "inputs": [
        {
          "indexed": true,
          "internalType": "address",
          "name": "tokenERC20",
          "type": "address"
        },
        {
          "indexed": true,
          "internalType": "address",
          "name": "depositor",
          "type": "address"
        },
        {
          "indexed": false,
          "internalType": "uint256",
          "name": "value",
          "type": "uint256"
        }
      ],
      "name": "WithdrawERC20",
      "type": "event"
    },
    {
      "anonymous": false,
      "inputs": [
        {
          "indexed": true,
          "internalType": "address",
          "name": "owner",
          "type": "address"
        },
        {
          "indexed": false,
          "internalType": "uint256",
          "name": "feeAmount",
          "type": "uint256"
        }
      ],
      "name": "WithdrawFee",
      "type": "event"
    },
    {
      "anonymous": false,
      "inputs": [
        {
          "indexed": true,
          "internalType": "address",
          "name": "tokenERC20",
          "type": "address"
        },
        {
          "indexed": true,
          "internalType": "address",
          "name": "owner",
          "type": "address"
        },
        {
          "indexed": false,
          "internalType": "uint256",
          "name": "feeAmount",
          "type": "uint256"
        }
      ],
      "name": "WithdrawFeeERC20",
      "type": "event"
    },
    {
      "inputs": [
        {
          "internalType": "address",
          "name": "owner",
          "type": "address"
        },
        {
          "internalType": "address",
          "name": "spender",
          "type": "address"
        }
      ],
      "name": "allowance",
      "outputs": [
        {
          "internalType": "uint256",
          "name": "",
          "type": "uint256"
        }
      ],
      "stateMutability": "view",
      "type": "function"
    },
    {
      "inputs": [
        {
          "internalType": "address",
          "name": "spender",
          "type": "address"
        },
        {
          "internalType": "uint256",
          "name": "amount",
          "type": "uint256"
        }
      ],
      "name": "approve",
      "outputs": [
        {
          "internalType": "bool",
          "name": "",
          "type": "bool"
        }
      ],
      "stateMutability": "nonpayable",
      "type": "function"
    },
    {
      "inputs": [
        {
          "internalType": "address",
          "name": "account",
          "type": "address"
        }
      ],
      "name": "balanceOf",
      "outputs": [
        {
          "internalType": "uint256",
          "name": "",
          "type": "uint256"
        }
      ],
      "stateMutability": "view",
      "type": "function"
    },
    {
      "inputs": [
        {
          "internalType": "uint256",
          "name": "amount",
          "type": "uint256"
        }
      ],
      "name": "burn",
      "outputs": [],
      "stateMutability": "nonpayable",
      "type": "function"
    },
    {
      "inputs": [
        {
          "internalType": "address",
          "name": "account",
          "type": "address"
        },
        {
          "internalType": "uint256",
          "name": "amount",
          "type": "uint256"
        }
      ],
      "name": "burnFrom",
      "outputs": [],
      "stateMutability": "nonpayable",
      "type": "function"
    },
    {
      "inputs": [],
      "name": "decimals",
      "outputs": [
        {
          "internalType": "uint8",
          "name": "",
          "type": "uint8"
        }
      ],
      "stateMutability": "view",
      "type": "function"
    },
    {
      "inputs": [
        {
          "internalType": "address",
          "name": "spender",
          "type": "address"
        },
        {
          "internalType": "uint256",
          "name": "subtractedValue",
          "type": "uint256"
        }
      ],
      "name": "decreaseAllowance",
      "outputs": [
        {
          "internalType": "bool",
          "name": "",
          "type": "bool"
        }
      ],
      "stateMutability": "nonpayable",
      "type": "function"
    },
    {
      "inputs": [],
      "name": "deposit",
      "outputs": [],
      "stateMutability": "payable",
      "type": "function"
    },
    {
      "inputs": [
        {
          "internalType": "address",
          "name": "tokenAddress",
          "type": "address"
        },
        {
          "internalType": "uint256",
          "name": "amount",
          "type": "uint256"
        },
        {
          "internalType": "address",
          "name": "to",
          "type": "address"
        },
        {
          "internalType": "uint256",
          "name": "tipAmount",
          "type": "uint256"
        }
      ],
      "name": "depositAndTipERC20",
      "outputs": [],
      "stateMutability": "nonpayable",
      "type": "function"
    },
    {
      "inputs": [
        {
          "internalType": "address",
          "name": "tokenAddress",
          "type": "address"
        },
        {
          "internalType": "uint256",
          "name": "amount",
          "type": "uint256"
        },
        {
          "internalType": "address[]",
          "name": "to",
          "type": "address[]"
        },
        {
          "internalType": "uint256[]",
          "name": "tipAmount",
          "type": "uint256[]"
        }
      ],
      "name": "depositAndTipERC20Multiple",
      "outputs": [],
      "stateMutability": "nonpayable",
      "type": "function"
    },
    {
      "inputs": [
        {
          "internalType": "address",
          "name": "tokenAddress",
          "type": "address"
        },
        {
          "internalType": "uint256",
          "name": "amount",
          "type": "uint256"
        }
      ],
      "name": "depositERC20",
      "outputs": [],
      "stateMutability": "nonpayable",
      "type": "function"
    },
    {
      "inputs": [],
      "name": "depositTopUp",
      "outputs": [],
      "stateMutability": "payable",
      "type": "function"
    },
    {
      "inputs": [
        {
          "internalType": "address",
          "name": "",
          "type": "address"
        }
      ],
      "name": "depositedBalances",
      "outputs": [
        {
          "internalType": "uint256",
          "name": "",
          "type": "uint256"
        }
      ],
      "stateMutability": "view",
      "type": "function"
    },
    {
      "inputs": [
        {
          "internalType": "address",
          "name": "",
          "type": "address"
        },
        {
          "internalType": "address",
          "name": "",
          "type": "address"
        }
      ],
      "name": "depositedBalancesERC20",
      "outputs": [
        {
          "internalType": "uint256",
          "name": "",
          "type": "uint256"
        }
      ],
      "stateMutability": "view",
      "type": "function"
    },
    {
      "inputs": [
        {
          "internalType": "address",
          "name": "",
          "type": "address"
        }
      ],
      "name": "feeERC20Amount",
      "outputs": [
        {
          "internalType": "uint256",
          "name": "",
          "type": "uint256"
        }
      ],
      "stateMutability": "view",
      "type": "function"
    },
    {
      "inputs": [],
      "name": "getContractBalance",
      "outputs": [
        {
          "internalType": "uint256",
          "name": "",
          "type": "uint256"
        }
      ],
      "stateMutability": "view",
      "type": "function"
    },
    {
      "inputs": [
        {
          "internalType": "address",
          "name": "depositor",
          "type": "address"
        }
      ],
      "name": "getDepositedBalance",
      "outputs": [
        {
          "internalType": "uint256",
          "name": "",
          "type": "uint256"
        }
      ],
      "stateMutability": "view",
      "type": "function"
    },
    {
      "inputs": [
        {
          "internalType": "address",
          "name": "tokenAddress",
          "type": "address"
        },
        {
          "internalType": "address",
          "name": "depositor",
          "type": "address"
        }
      ],
      "name": "getDepositedBalanceERC20",
      "outputs": [
        {
          "internalType": "uint256",
          "name": "",
          "type": "uint256"
        }
      ],
      "stateMutability": "view",
      "type": "function"
    },
    {
      "inputs": [],
      "name": "getFeeBalance",
      "outputs": [
        {
          "internalType": "uint256",
          "name": "",
          "type": "uint256"
        }
      ],
      "stateMutability": "view",
      "type": "function"
    },
    {
      "inputs": [
        {
          "internalType": "address",
          "name": "tokenAddress",
          "type": "address"
        }
      ],
      "name": "getFeeBalanceERC20",
      "outputs": [
        {
          "internalType": "uint256",
          "name": "",
          "type": "uint256"
        }
      ],
      "stateMutability": "view",
      "type": "function"
    },
    {
      "inputs": [],
      "name": "getFeeProcent",
      "outputs": [
        {
          "internalType": "uint256",
          "name": "",
          "type": "uint256"
        }
      ],
      "stateMutability": "view",
      "type": "function"
    },
    {
      "inputs": [],
      "name": "getTopUpAddress",
      "outputs": [
        {
          "internalType": "address",
          "name": "",
          "type": "address"
        }
      ],
      "stateMutability": "view",
      "type": "function"
    },
    {
      "inputs": [
        {
          "internalType": "address",
          "name": "spender",
          "type": "address"
        },
        {
          "internalType": "uint256",
          "name": "addedValue",
          "type": "uint256"
        }
      ],
      "name": "increaseAllowance",
      "outputs": [
        {
          "internalType": "bool",
          "name": "",
          "type": "bool"
        }
      ],
      "stateMutability": "nonpayable",
      "type": "function"
    },
    {
      "inputs": [],
      "name": "initialize",
      "outputs": [],
      "stateMutability": "nonpayable",
      "type": "function"
    },
    {
      "inputs": [
        {
          "internalType": "address",
          "name": "account",
          "type": "address"
        },
        {
          "internalType": "uint256",
          "name": "amount",
          "type": "uint256"
        }
      ],
      "name": "mint",
      "outputs": [],
      "stateMutability": "nonpayable",
      "type": "function"
    },
    {
      "inputs": [],
      "name": "name",
      "outputs": [
        {
          "internalType": "string",
          "name": "",
          "type": "string"
        }
      ],
      "stateMutability": "view",
      "type": "function"
    },
    {
      "inputs": [],
      "name": "owner",
      "outputs": [
        {
          "internalType": "address",
          "name": "",
          "type": "address"
        }
      ],
      "stateMutability": "view",
      "type": "function"
    },
    {
      "inputs": [],
      "name": "renounceOwnership",
      "outputs": [],
      "stateMutability": "nonpayable",
      "type": "function"
    },
    {
      "inputs": [
        {
          "internalType": "uint256",
          "name": "_fee",
          "type": "uint256"
        }
      ],
      "name": "setFee",
      "outputs": [],
      "stateMutability": "nonpayable",
      "type": "function"
    },
    {
      "inputs": [
        {
          "internalType": "address",
          "name": "_topUpAddress",
          "type": "address"
        }
      ],
      "name": "setTopUpAddress",
      "outputs": [],
      "stateMutability": "nonpayable",
      "type": "function"
    },
    {
      "inputs": [],
      "name": "symbol",
      "outputs": [
        {
          "internalType": "string",
          "name": "",
          "type": "string"
        }
      ],
      "stateMutability": "view",
      "type": "function"
    },
    {
      "inputs": [
        {
          "internalType": "address",
          "name": "to",
          "type": "address"
        },
        {
          "internalType": "uint256",
          "name": "amount",
          "type": "uint256"
        }
      ],
      "name": "tip",
      "outputs": [],
      "stateMutability": "nonpayable",
      "type": "function"
    },
    {
      "inputs": [
        {
          "internalType": "address",
          "name": "tokenAddress",
          "type": "address"
        },
        {
          "internalType": "address",
          "name": "to",
          "type": "address"
        },
        {
          "internalType": "uint256",
          "name": "amount",
          "type": "uint256"
        }
      ],
      "name": "tipERC20",
      "outputs": [],
      "stateMutability": "nonpayable",
      "type": "function"
    },
    {
      "inputs": [
        {
          "internalType": "address",
          "name": "tokenAddress",
          "type": "address"
        },
        {
          "internalType": "address[]",
          "name": "to",
          "type": "address[]"
        },
        {
          "internalType": "uint256[]",
          "name": "amount",
          "type": "uint256[]"
        }
      ],
      "name": "tipERC20Multiple",
      "outputs": [],
      "stateMutability": "nonpayable",
      "type": "function"
    },
    {
      "inputs": [
        {
          "internalType": "address[]",
          "name": "to",
          "type": "address[]"
        },
        {
          "internalType": "uint256[]",
          "name": "amount",
          "type": "uint256[]"
        }
      ],
      "name": "tipMultiple",
      "outputs": [],
      "stateMutability": "nonpayable",
      "type": "function"
    },
    {
      "inputs": [
        {
          "internalType": "address",
          "name": "to",
          "type": "address"
        },
        {
          "internalType": "uint256",
          "name": "amount",
          "type": "uint256"
        }
      ],
      "name": "tipTopUp",
      "outputs": [],
      "stateMutability": "nonpayable",
      "type": "function"
    },
    {
      "inputs": [
        {
          "internalType": "uint256",
          "name": "amount",
          "type": "uint256"
        }
      ],
      "name": "topUp",
      "outputs": [],
      "stateMutability": "nonpayable",
      "type": "function"
    },
    {
      "inputs": [
        {
          "internalType": "address",
          "name": "tokenAddress",
          "type": "address"
        },
        {
          "internalType": "uint256",
          "name": "amount",
          "type": "uint256"
        }
      ],
      "name": "topUpERC20",
      "outputs": [],
      "stateMutability": "nonpayable",
      "type": "function"
    },
    {
      "inputs": [
        {
          "internalType": "address",
          "name": "to",
          "type": "address"
        },
        {
          "internalType": "uint256",
          "name": "amount",
          "type": "uint256"
        }
      ],
      "name": "topUpOwner",
      "outputs": [],
      "stateMutability": "nonpayable",
      "type": "function"
    },
    {
      "inputs": [],
      "name": "totalSupply",
      "outputs": [
        {
          "internalType": "uint256",
          "name": "",
          "type": "uint256"
        }
      ],
      "stateMutability": "view",
      "type": "function"
    },
    {
      "inputs": [
        {
          "internalType": "address",
          "name": "to",
          "type": "address"
        },
        {
          "internalType": "uint256",
          "name": "amount",
          "type": "uint256"
        }
      ],
      "name": "transfer",
      "outputs": [
        {
          "internalType": "bool",
          "name": "",
          "type": "bool"
        }
      ],
      "stateMutability": "nonpayable",
      "type": "function"
    },
    {
      "inputs": [
        {
          "internalType": "address",
          "name": "from",
          "type": "address"
        },
        {
          "internalType": "address",
          "name": "to",
          "type": "address"
        },
        {
          "internalType": "uint256",
          "name": "amount",
          "type": "uint256"
        }
      ],
      "name": "transferFrom",
      "outputs": [
        {
          "internalType": "bool",
          "name": "",
          "type": "bool"
        }
      ],
      "stateMutability": "nonpayable",
      "type": "function"
    },
    {
      "inputs": [
        {
          "internalType": "address",
          "name": "newOwner",
          "type": "address"
        }
      ],
      "name": "transferOwnership",
      "outputs": [],
      "stateMutability": "nonpayable",
      "type": "function"
    },
    {
      "inputs": [
        {
          "internalType": "uint256",
          "name": "amount",
          "type": "uint256"
        }
      ],
      "name": "withdraw",
      "outputs": [],
      "stateMutability": "nonpayable",
      "type": "function"
    },
    {
      "inputs": [
        {
          "internalType": "address",
          "name": "tokenAddress",
          "type": "address"
        },
        {
          "internalType": "uint256",
          "name": "amount",
          "type": "uint256"
        }
      ],
      "name": "withdrawERC20",
      "outputs": [],
      "stateMutability": "nonpayable",
      "type": "function"
    },
    {
      "inputs": [
        {
          "internalType": "address",
          "name": "_to",
          "type": "address"
        }
      ],
      "name": "withdrawFee",
      "outputs": [],
      "stateMutability": "nonpayable",
      "type": "function"
    },
    {
      "inputs": [
        {
          "internalType": "address",
          "name": "tokenAddress",
          "type": "address"
        },
        {
          "internalType": "address",
          "name": "_to",
          "type": "address"
        }
      ],
      "name": "withdrawFeeERC20",
      "outputs": [],
      "stateMutability": "nonpayable",
      "type": "function"
    }
  ],
  "bytecode": "0x608060405234801561001057600080fd5b50615218806100206000396000f3fe6080604052600436106102885760003560e01c806370a082311161015a57806397feb926116100c1578063d0e30db01161007a578063d0e30db0146109db578063d46e2a6d146109e5578063d4c30ceb14610a0e578063dd62ed3e14610a39578063f2fde38b14610a76578063f8020e2514610a9f57610288565b806397feb92614610895578063984e31dd146108be578063a1db9782146108fb578063a457c2d714610924578063a9059cbb14610961578063c3c612881461099e57610288565b806383f42e8e1161011357806383f42e8e1461079957806386463e09146107c25780638b6fc452146107eb5780638da5cb5b146108145780638f0766931461083f57806395d89b411461086a57610288565b806370a082311461069d578063715018a6146106da578063751e58ce146106f157806379cc67901461071c5780637d995311146107455780638129fc1c1461078257610288565b80632e1a7d4d116101fe57806350017f3e116101b757806350017f3e14610591578063514c1321146105ba578063533f1fa3146105e357806368fcf4f61461062057806369fe0e2d146106495780636f9fb98a1461067257610288565b80632e1a7d4d14610485578063313ce567146104ae57806339509351146104d957806340c10f191461051657806342966c681461053f5780634ff30cf21461056857610288565b80631544405211610250578063154440521461036557806318160ddd1461038e5780631ac3ddeb146103b95780631dd09ed8146103e257806323b872dd1461040b5780632a973daf1461044857610288565b806303ab34181461028d57806306fdde03146102975780630919adef146102c2578063095ea7b3146102eb57806310a1e5a814610328575b600080fd5b610295610ac8565b005b3480156102a357600080fd5b506102ac610bd3565b6040516102b99190613942565b60405180910390f35b3480156102ce57600080fd5b506102e960048036038101906102e49190613c17565b610c65565b005b3480156102f757600080fd5b50610312600480360381019061030d9190613ca2565b610d0d565b60405161031f9190613cfd565b60405180910390f35b34801561033457600080fd5b5061034f600480360381019061034a9190613d18565b610d30565b60405161035c9190613d67565b60405180910390f35b34801561037157600080fd5b5061038c60048036038101906103879190613ca2565b610db7565b005b34801561039a57600080fd5b506103a36110a1565b6040516103b09190613d67565b60405180910390f35b3480156103c557600080fd5b506103e060048036038101906103db9190613d82565b6110ab565b005b3480156103ee57600080fd5b5061040960048036038101906104049190613d82565b611194565b005b34801561041757600080fd5b50610432600480360381019061042d9190613daf565b6111e0565b60405161043f9190613cfd565b60405180910390f35b34801561045457600080fd5b5061046f600480360381019061046a9190613d82565b61120f565b60405161047c9190613d67565b60405180910390f35b34801561049157600080fd5b506104ac60048036038101906104a79190613e02565b611258565b005b3480156104ba57600080fd5b506104c36113de565b6040516104d09190613e4b565b60405180910390f35b3480156104e557600080fd5b5061050060048036038101906104fb9190613ca2565b6113e7565b60405161050d9190613cfd565b60405180910390f35b34801561052257600080fd5b5061053d60048036038101906105389190613ca2565b61141e565b005b34801561054b57600080fd5b5061056660048036038101906105619190613e02565b611434565b005b34801561057457600080fd5b5061058f600480360381019061058a9190613e66565b611448565b005b34801561059d57600080fd5b506105b860048036038101906105b39190613e02565b6114ee565b005b3480156105c657600080fd5b506105e160048036038101906105dc9190613ca2565b61167a565b005b3480156105ef57600080fd5b5061060a60048036038101906106059190613d82565b611891565b6040516106179190613d67565b60405180910390f35b34801561062c57600080fd5b5061064760048036038101906106429190613ede565b6118da565b005b34801561065557600080fd5b50610670600480360381019061066b9190613e02565b6118f5565b005b34801561067e57600080fd5b5061068761194b565b6040516106949190613d67565b60405180910390f35b3480156106a957600080fd5b506106c460048036038101906106bf9190613d82565b611953565b6040516106d19190613d67565b60405180910390f35b3480156106e657600080fd5b506106ef61199c565b005b3480156106fd57600080fd5b506107066119b0565b6040516107139190613d67565b60405180910390f35b34801561072857600080fd5b50610743600480360381019061073e9190613ca2565b6119ba565b005b34801561075157600080fd5b5061076c60048036038101906107679190613d82565b6119da565b6040516107799190613d67565b60405180910390f35b34801561078e57600080fd5b506107976119f2565b005b3480156107a557600080fd5b506107c060048036038101906107bb9190613d18565b611bac565b005b3480156107ce57600080fd5b506107e960048036038101906107e49190613daf565b611d8c565b005b3480156107f757600080fd5b50610812600480360381019061080d9190613ca2565b612127565b005b34801561082057600080fd5b50610829612381565b6040516108369190613f8c565b60405180910390f35b34801561084b57600080fd5b506108546123ab565b6040516108619190613f8c565b60405180910390f35b34801561087657600080fd5b5061087f6123d5565b60405161088c9190613942565b60405180910390f35b3480156108a157600080fd5b506108bc60048036038101906108b79190613ca2565b612467565b005b3480156108ca57600080fd5b506108e560048036038101906108e09190613d82565b61266b565b6040516108f29190613d67565b60405180910390f35b34801561090757600080fd5b50610922600480360381019061091d9190613ca2565b612683565b005b34801561093057600080fd5b5061094b60048036038101906109469190613ca2565b612885565b6040516109589190613cfd565b60405180910390f35b34801561096d57600080fd5b5061098860048036038101906109839190613ca2565b6128fc565b6040516109959190613cfd565b60405180910390f35b3480156109aa57600080fd5b506109c560048036038101906109c09190613d18565b61291f565b6040516109d29190613d67565b60405180910390f35b6109e3612944565b005b3480156109f157600080fd5b50610a0c6004803603810190610a079190613ca2565b612a37565b005b348015610a1a57600080fd5b50610a23612c3b565b604051610a309190613d67565b60405180910390f35b348015610a4557600080fd5b50610a606004803603810190610a5b9190613d18565b612c45565b604051610a6d9190613d67565b60405180910390f35b348015610a8257600080fd5b50610a9d6004803603810190610a989190613d82565b612ccc565b005b348015610aab57600080fd5b50610ac66004803603810190610ac19190613fa7565b612d4f565b005b60003411610b0b576040517f08c379a0000000000000000000000000000000000000000000000000000000008152600401610b0290614080565b60405180910390fd5b3460c9600060ca60009054906101000a900473ffffffffffffffffffffffffffffffffffffffff1673ffffffffffffffffffffffffffffffffffffffff1673ffffffffffffffffffffffffffffffffffffffff1681526020019081526020016000206000828254610b7c91906140cf565b925050819055503373ffffffffffffffffffffffffffffffffffffffff167fe1fffcc4923d04b559f4d29a8bfc6cda04eb5b0d3c460751c2402c5c5cc9109c34604051610bc99190613d67565b60405180910390a2565b606060368054610be290614132565b80601f0160208091040260200160405190810160405280929190818152602001828054610c0e90614132565b8015610c5b5780601f10610c3057610100808354040283529160200191610c5b565b820191906000526020600020905b815481529060010190602001808311610c3e57829003601f168201915b5050505050905090565b8051825114610ca9576040517f08c379a0000000000000000000000000000000000000000000000000000000008152600401610ca0906141af565b60405180910390fd5b60005b8251811015610d0757610cf484848381518110610ccc57610ccb6141cf565b5b6020026020010151848481518110610ce757610ce66141cf565b5b6020026020010151611d8c565b8080610cff906141fe565b915050610cac565b50505050565b600080610d18612d6a565b9050610d25818585612d72565b600191505092915050565b600060ce60008373ffffffffffffffffffffffffffffffffffffffff1673ffffffffffffffffffffffffffffffffffffffff16815260200190815260200160002060008473ffffffffffffffffffffffffffffffffffffffff1673ffffffffffffffffffffffffffffffffffffffff16815260200190815260200160002054905092915050565b610dbf612f3b565b600073ffffffffffffffffffffffffffffffffffffffff168273ffffffffffffffffffffffffffffffffffffffff1603610e2e576040517f08c379a0000000000000000000000000000000000000000000000000000000008152600401610e2590614292565b60405180910390fd5b600081118015610e9f575060c9600060ca60009054906101000a900473ffffffffffffffffffffffffffffffffffffffff1673ffffffffffffffffffffffffffffffffffffffff1673ffffffffffffffffffffffffffffffffffffffff168152602001908152602001600020548111155b610ede576040517f08c379a0000000000000000000000000000000000000000000000000000000008152600401610ed5906142fe565b60405180910390fd5b6000606460cb5483610ef0919061431e565b610efa919061438f565b905060008183610f0a91906143c0565b90508260c9600060ca60009054906101000a900473ffffffffffffffffffffffffffffffffffffffff1673ffffffffffffffffffffffffffffffffffffffff1673ffffffffffffffffffffffffffffffffffffffff1681526020019081526020016000206000828254610f7d91906143c0565b925050819055508160cc6000828254610f9691906140cf565b92505081905550610fc960ca60009054906101000a900473ffffffffffffffffffffffffffffffffffffffff1684612fb9565b8373ffffffffffffffffffffffffffffffffffffffff166108fc829081150290604051600060405180830381858888f1935050505015801561100f573d6000803e3d6000fd5b508373ffffffffffffffffffffffffffffffffffffffff1660ca60009054906101000a900473ffffffffffffffffffffffffffffffffffffffff1673ffffffffffffffffffffffffffffffffffffffff167fa856d9e39febebc9acaf7016917c5eff0da612e036ddaac5cf5b10b07c8a0f268360cc546040516110939291906143f4565b60405180910390a350505050565b6000603554905090565b6110b3612f3b565b600060cc54116110f8576040517f08c379a00000000000000000000000000000000000000000000000000000000081526004016110ef90614469565b60405180910390fd5b8073ffffffffffffffffffffffffffffffffffffffff166108fc60cc549081150290604051600060405180830381858888f19350505050158015611140573d6000803e3d6000fd5b508073ffffffffffffffffffffffffffffffffffffffff167f66bf9186b00db666fc37aaffbb95a050c66e599e000c785c1dff0467d868f1b160cc546040516111899190613d67565b60405180910390a250565b61119c612f3b565b8060ca60006101000a81548173ffffffffffffffffffffffffffffffffffffffff021916908373ffffffffffffffffffffffffffffffffffffffff16021790555050565b6000806111eb612d6a565b90506111f8858285613188565b611203858585613214565b60019150509392505050565b600060c960008373ffffffffffffffffffffffffffffffffffffffff1673ffffffffffffffffffffffffffffffffffffffff168152602001908152602001600020549050919050565b6000811180156112a7575060c960003373ffffffffffffffffffffffffffffffffffffffff1673ffffffffffffffffffffffffffffffffffffffff168152602001908152602001600020548111155b6112e6576040517f08c379a00000000000000000000000000000000000000000000000000000000081526004016112dd906144d5565b60405180910390fd5b8060c960003373ffffffffffffffffffffffffffffffffffffffff1673ffffffffffffffffffffffffffffffffffffffff168152602001908152602001600020600082825461133591906143c0565b925050819055506113463382612fb9565b3373ffffffffffffffffffffffffffffffffffffffff166108fc829081150290604051600060405180830381858888f1935050505015801561138c573d6000803e3d6000fd5b503373ffffffffffffffffffffffffffffffffffffffff167f884edad9ce6fa2440d8a54cc123490eb96d2768479d49ff9c7366125a9424364826040516113d39190613d67565b60405180910390a250565b60006012905090565b6000806113f2612d6a565b90506114138185856114048589612c45565b61140e91906140cf565b612d72565b600191505092915050565b611426612f3b565b611430828261348d565b5050565b61144561143f612d6a565b82612fb9565b50565b805182511461148c576040517f08c379a0000000000000000000000000000000000000000000000000000000008152600401611483906141af565b60405180910390fd5b60005b82518110156114e9576114d68382815181106114ae576114ad6141cf565b5b60200260200101518383815181106114c9576114c86141cf565b5b6020026020010151612127565b80806114e1906141fe565b91505061148f565b505050565b60008111801561153d575060c960003373ffffffffffffffffffffffffffffffffffffffff1673ffffffffffffffffffffffffffffffffffffffff168152602001908152602001600020548111155b61157c576040517f08c379a000000000000000000000000000000000000000000000000000000000815260040161157390614541565b60405180910390fd5b8060c960003373ffffffffffffffffffffffffffffffffffffffff1673ffffffffffffffffffffffffffffffffffffffff16815260200190815260200160002060008282546115cb91906143c0565b925050819055508060c9600060ca60009054906101000a900473ffffffffffffffffffffffffffffffffffffffff1673ffffffffffffffffffffffffffffffffffffffff1673ffffffffffffffffffffffffffffffffffffffff168152602001908152602001600020600082825461164391906140cf565b925050819055506116773360ca60009054906101000a900473ffffffffffffffffffffffffffffffffffffffff1683613214565b50565b600081118015611706575060ce60003373ffffffffffffffffffffffffffffffffffffffff1673ffffffffffffffffffffffffffffffffffffffff16815260200190815260200160002060008373ffffffffffffffffffffffffffffffffffffffff1673ffffffffffffffffffffffffffffffffffffffff168152602001908152602001600020548111155b611745576040517f08c379a000000000000000000000000000000000000000000000000000000000815260040161173c90614541565b60405180910390fd5b8060ce60003373ffffffffffffffffffffffffffffffffffffffff1673ffffffffffffffffffffffffffffffffffffffff16815260200190815260200160002060008473ffffffffffffffffffffffffffffffffffffffff1673ffffffffffffffffffffffffffffffffffffffff16815260200190815260200160002060008282546117d191906143c0565b925050819055508060ce600060ca60009054906101000a900473ffffffffffffffffffffffffffffffffffffffff1673ffffffffffffffffffffffffffffffffffffffff1673ffffffffffffffffffffffffffffffffffffffff16815260200190815260200160002060008473ffffffffffffffffffffffffffffffffffffffff1673ffffffffffffffffffffffffffffffffffffffff168152602001908152602001600020600082825461188691906140cf565b925050819055505050565b600060cd60008373ffffffffffffffffffffffffffffffffffffffff1673ffffffffffffffffffffffffffffffffffffffff168152602001908152602001600020549050919050565b6118e48484612467565b6118ef848383610c65565b50505050565b6118fd612f3b565b6064811115611941576040517f08c379a0000000000000000000000000000000000000000000000000000000008152600401611938906145d3565b60405180910390fd5b8060cb8190555050565b600047905090565b6000603360008373ffffffffffffffffffffffffffffffffffffffff1673ffffffffffffffffffffffffffffffffffffffff168152602001908152602001600020549050919050565b6119a4612f3b565b6119ae60006135e4565b565b600060cb54905090565b6119cc826119c6612d6a565b83613188565b6119d68282612fb9565b5050565b60c96020528060005260406000206000915090505481565b60008060019054906101000a900460ff16159050808015611a235750600160008054906101000a900460ff1660ff16105b80611a505750611a32306136aa565b158015611a4f5750600160008054906101000a900460ff1660ff16145b5b611a8f576040517f08c379a0000000000000000000000000000000000000000000000000000000008152600401611a8690614665565b60405180910390fd5b60016000806101000a81548160ff021916908360ff1602179055508015611acc576001600060016101000a81548160ff0219169083151502179055505b611b406040518060400160405280600781526020017f42545420544950000000000000000000000000000000000000000000000000008152506040518060400160405280600381526020017f54495000000000000000000000000000000000000000000000000000000000008152506136cd565b611b4861372a565b611b5061377b565b8015611ba95760008060016101000a81548160ff0219169083151502179055507f7f26b83ff96e1f2b6a682f133852f6798a09c465da95921460cefb38474024986001604051611ba091906146ca565b60405180910390a15b50565b611bb4612f3b565b600060cd60008473ffffffffffffffffffffffffffffffffffffffff1673ffffffffffffffffffffffffffffffffffffffff1681526020019081526020016000205411611c36576040517f08c379a0000000000000000000000000000000000000000000000000000000008152600401611c2d90614469565b60405180910390fd5b60008290508073ffffffffffffffffffffffffffffffffffffffff1663a9059cbb8360cd60008773ffffffffffffffffffffffffffffffffffffffff1673ffffffffffffffffffffffffffffffffffffffff168152602001908152602001600020546040518363ffffffff1660e01b8152600401611cb59291906146e5565b6020604051808303816000875af1158015611cd4573d6000803e3d6000fd5b505050506040513d601f19601f82011682018060405250810190611cf8919061473a565b611d37576040517f08c379a0000000000000000000000000000000000000000000000000000000008152600401611d2e906147b3565b60405180910390fd5b8173ffffffffffffffffffffffffffffffffffffffff167f66bf9186b00db666fc37aaffbb95a050c66e599e000c785c1dff0467d868f1b160cc54604051611d7f9190613d67565b60405180910390a2505050565b600073ffffffffffffffffffffffffffffffffffffffff168273ffffffffffffffffffffffffffffffffffffffff1603611dfb576040517f08c379a0000000000000000000000000000000000000000000000000000000008152600401611df290614292565b60405180910390fd5b600081118015611e87575060ce60003373ffffffffffffffffffffffffffffffffffffffff1673ffffffffffffffffffffffffffffffffffffffff16815260200190815260200160002060008473ffffffffffffffffffffffffffffffffffffffff1673ffffffffffffffffffffffffffffffffffffffff168152602001908152602001600020548111155b611ec6576040517f08c379a0000000000000000000000000000000000000000000000000000000008152600401611ebd906142fe565b60405180910390fd5b6000606460cb5483611ed8919061431e565b611ee2919061438f565b905060008183611ef291906143c0565b90508260ce60003373ffffffffffffffffffffffffffffffffffffffff1673ffffffffffffffffffffffffffffffffffffffff16815260200190815260200160002060008773ffffffffffffffffffffffffffffffffffffffff1673ffffffffffffffffffffffffffffffffffffffff1681526020019081526020016000206000828254611f8091906143c0565b925050819055508160cd60008773ffffffffffffffffffffffffffffffffffffffff1673ffffffffffffffffffffffffffffffffffffffff1681526020019081526020016000206000828254611fd691906140cf565b9250508190555060008590508073ffffffffffffffffffffffffffffffffffffffff1663a9059cbb86846040518363ffffffff1660e01b815260040161201d9291906146e5565b6020604051808303816000875af115801561203c573d6000803e3d6000fd5b505050506040513d601f19601f82011682018060405250810190612060919061473a565b61209f576040517f08c379a0000000000000000000000000000000000000000000000000000000008152600401612096906147b3565b60405180910390fd5b8473ffffffffffffffffffffffffffffffffffffffff163373ffffffffffffffffffffffffffffffffffffffff168773ffffffffffffffffffffffffffffffffffffffff167fa37f6f6692a3f1a119edc128b26a938c22db0dcb1d8d69649e49f0470a6f03308560cc546040516121179291906143f4565b60405180910390a4505050505050565b600073ffffffffffffffffffffffffffffffffffffffff168273ffffffffffffffffffffffffffffffffffffffff1603612196576040517f08c379a000000000000000000000000000000000000000000000000000000000815260040161218d90614292565b60405180910390fd5b6000811180156121e5575060c960003373ffffffffffffffffffffffffffffffffffffffff1673ffffffffffffffffffffffffffffffffffffffff168152602001908152602001600020548111155b612224576040517f08c379a000000000000000000000000000000000000000000000000000000000815260040161221b906142fe565b60405180910390fd5b6000606460cb5483612236919061431e565b612240919061438f565b90506000818361225091906143c0565b90508260c960003373ffffffffffffffffffffffffffffffffffffffff1673ffffffffffffffffffffffffffffffffffffffff16815260200190815260200160002060008282546122a191906143c0565b925050819055508160cc60008282546122ba91906140cf565b925050819055506122cb3384612fb9565b8373ffffffffffffffffffffffffffffffffffffffff166108fc829081150290604051600060405180830381858888f19350505050158015612311573d6000803e3d6000fd5b508373ffffffffffffffffffffffffffffffffffffffff163373ffffffffffffffffffffffffffffffffffffffff167fa856d9e39febebc9acaf7016917c5eff0da612e036ddaac5cf5b10b07c8a0f268360cc546040516123739291906143f4565b60405180910390a350505050565b6000609760009054906101000a900473ffffffffffffffffffffffffffffffffffffffff16905090565b600060ca60009054906101000a900473ffffffffffffffffffffffffffffffffffffffff16905090565b6060603780546123e490614132565b80601f016020809104026020016040519081016040528092919081815260200182805461241090614132565b801561245d5780601f106124325761010080835404028352916020019161245d565b820191906000526020600020905b81548152906001019060200180831161244057829003601f168201915b5050505050905090565b600081116124aa576040517f08c379a00000000000000000000000000000000000000000000000000000000081526004016124a190614080565b60405180910390fd5b60008290508073ffffffffffffffffffffffffffffffffffffffff166323b872dd3330856040518463ffffffff1660e01b81526004016124ec939291906147d3565b6020604051808303816000875af115801561250b573d6000803e3d6000fd5b505050506040513d601f19601f8201168201806040525081019061252f919061473a565b61256e576040517f08c379a0000000000000000000000000000000000000000000000000000000008152600401612565906147b3565b60405180910390fd5b8160ce60003373ffffffffffffffffffffffffffffffffffffffff1673ffffffffffffffffffffffffffffffffffffffff16815260200190815260200160002060008573ffffffffffffffffffffffffffffffffffffffff1673ffffffffffffffffffffffffffffffffffffffff16815260200190815260200160002060008282546125fa91906140cf565b925050819055503373ffffffffffffffffffffffffffffffffffffffff168373ffffffffffffffffffffffffffffffffffffffff167f2dfd2dfb41de1102485c9a50c6005dae2cdad90016d81a39c7691e941799151a8460405161265e9190613d67565b60405180910390a3505050565b60cd6020528060005260406000206000915090505481565b600081116126c6576040517f08c379a00000000000000000000000000000000000000000000000000000000081526004016126bd90614080565b60405180910390fd5b60008290508073ffffffffffffffffffffffffffffffffffffffff1663a9059cbb33846040518363ffffffff1660e01b81526004016127069291906146e5565b6020604051808303816000875af1158015612725573d6000803e3d6000fd5b505050506040513d601f19601f82011682018060405250810190612749919061473a565b612788576040517f08c379a000000000000000000000000000000000000000000000000000000000815260040161277f906147b3565b60405180910390fd5b8160ce60003373ffffffffffffffffffffffffffffffffffffffff1673ffffffffffffffffffffffffffffffffffffffff16815260200190815260200160002060008573ffffffffffffffffffffffffffffffffffffffff1673ffffffffffffffffffffffffffffffffffffffff168152602001908152602001600020600082825461281491906143c0565b925050819055503373ffffffffffffffffffffffffffffffffffffffff168373ffffffffffffffffffffffffffffffffffffffff167f33c35f9541201e342d5e7467016e65a0a06182eb12a5f17103f71cec95b6cb29846040516128789190613d67565b60405180910390a3505050565b600080612890612d6a565b9050600061289e8286612c45565b9050838110156128e3576040517f08c379a00000000000000000000000000000000000000000000000000000000081526004016128da9061487c565b60405180910390fd5b6128f08286868403612d72565b60019250505092915050565b600080612907612d6a565b9050612914818585613214565b600191505092915050565b60ce602052816000526040600020602052806000526040600020600091509150505481565b60003411612987576040517f08c379a000000000000000000000000000000000000000000000000000000000815260040161297e90614080565b60405180910390fd5b3460c960003373ffffffffffffffffffffffffffffffffffffffff1673ffffffffffffffffffffffffffffffffffffffff16815260200190815260200160002060008282546129d691906140cf565b925050819055506129e7333461348d565b3373ffffffffffffffffffffffffffffffffffffffff167fe1fffcc4923d04b559f4d29a8bfc6cda04eb5b0d3c460751c2402c5c5cc9109c34604051612a2d9190613d67565b60405180910390a2565b612a3f612f3b565b600073ffffffffffffffffffffffffffffffffffffffff168273ffffffffffffffffffffffffffffffffffffffff1603612aae576040517f08c379a0000000000000000000000000000000000000000000000000000000008152600401612aa5906148e8565b60405180910390fd5b600081118015612afd575060c960008373ffffffffffffffffffffffffffffffffffffffff1673ffffffffffffffffffffffffffffffffffffffff168152602001908152602001600020548111155b612b3c576040517f08c379a0000000000000000000000000000000000000000000000000000000008152600401612b3390614541565b60405180910390fd5b8060c960008473ffffffffffffffffffffffffffffffffffffffff1673ffffffffffffffffffffffffffffffffffffffff1681526020019081526020016000206000828254612b8b91906143c0565b925050819055508060c9600060ca60009054906101000a900473ffffffffffffffffffffffffffffffffffffffff1673ffffffffffffffffffffffffffffffffffffffff1673ffffffffffffffffffffffffffffffffffffffff1681526020019081526020016000206000828254612c0391906140cf565b92505081905550612c378260ca60009054906101000a900473ffffffffffffffffffffffffffffffffffffffff1683613214565b5050565b600060cc54905090565b6000603460008473ffffffffffffffffffffffffffffffffffffffff1673ffffffffffffffffffffffffffffffffffffffff16815260200190815260200160002060008373ffffffffffffffffffffffffffffffffffffffff1673ffffffffffffffffffffffffffffffffffffffff16815260200190815260200160002054905092915050565b612cd4612f3b565b600073ffffffffffffffffffffffffffffffffffffffff168173ffffffffffffffffffffffffffffffffffffffff1603612d43576040517f08c379a0000000000000000000000000000000000000000000000000000000008152600401612d3a9061497a565b60405180910390fd5b612d4c816135e4565b50565b612d598484612467565b612d64848383611d8c565b50505050565b600033905090565b600073ffffffffffffffffffffffffffffffffffffffff168373ffffffffffffffffffffffffffffffffffffffff1603612de1576040517f08c379a0000000000000000000000000000000000000000000000000000000008152600401612dd890614a0c565b60405180910390fd5b600073ffffffffffffffffffffffffffffffffffffffff168273ffffffffffffffffffffffffffffffffffffffff1603612e50576040517f08c379a0000000000000000000000000000000000000000000000000000000008152600401612e4790614a9e565b60405180910390fd5b80603460008573ffffffffffffffffffffffffffffffffffffffff1673ffffffffffffffffffffffffffffffffffffffff16815260200190815260200160002060008473ffffffffffffffffffffffffffffffffffffffff1673ffffffffffffffffffffffffffffffffffffffff168152602001908152602001600020819055508173ffffffffffffffffffffffffffffffffffffffff168373ffffffffffffffffffffffffffffffffffffffff167f8c5be1e5ebec7d5bd14f71427d1e84f3dd0314c0f7b2291e5b200ac8c7c3b92583604051612f2e9190613d67565b60405180910390a3505050565b612f43612d6a565b73ffffffffffffffffffffffffffffffffffffffff16612f61612381565b73ffffffffffffffffffffffffffffffffffffffff1614612fb7576040517f08c379a0000000000000000000000000000000000000000000000000000000008152600401612fae90614b0a565b60405180910390fd5b565b600073ffffffffffffffffffffffffffffffffffffffff168273ffffffffffffffffffffffffffffffffffffffff1603613028576040517f08c379a000000000000000000000000000000000000000000000000000000000815260040161301f90614b9c565b60405180910390fd5b613034826000836137d4565b6000603360008473ffffffffffffffffffffffffffffffffffffffff1673ffffffffffffffffffffffffffffffffffffffff168152602001908152602001600020549050818110156130bb576040517f08c379a00000000000000000000000000000000000000000000000000000000081526004016130b290614c2e565b60405180910390fd5b818103603360008573ffffffffffffffffffffffffffffffffffffffff1673ffffffffffffffffffffffffffffffffffffffff1681526020019081526020016000208190555081603560008282540392505081905550600073ffffffffffffffffffffffffffffffffffffffff168373ffffffffffffffffffffffffffffffffffffffff167fddf252ad1be2c89b69c2b068fc378daa952ba7f163c4a11628f55a4df523b3ef8460405161316f9190613d67565b60405180910390a3613183836000846137d9565b505050565b60006131948484612c45565b90507fffffffffffffffffffffffffffffffffffffffffffffffffffffffffffffffff811461320e5781811015613200576040517f08c379a00000000000000000000000000000000000000000000000000000000081526004016131f790614c9a565b60405180910390fd5b61320d8484848403612d72565b5b50505050565b600073ffffffffffffffffffffffffffffffffffffffff168373ffffffffffffffffffffffffffffffffffffffff1603613283576040517f08c379a000000000000000000000000000000000000000000000000000000000815260040161327a90614d2c565b60405180910390fd5b600073ffffffffffffffffffffffffffffffffffffffff168273ffffffffffffffffffffffffffffffffffffffff16036132f2576040517f08c379a00000000000000000000000000000000000000000000000000000000081526004016132e990614dbe565b60405180910390fd5b6132fd8383836137d4565b6000603360008573ffffffffffffffffffffffffffffffffffffffff1673ffffffffffffffffffffffffffffffffffffffff16815260200190815260200160002054905081811015613384576040517f08c379a000000000000000000000000000000000000000000000000000000000815260040161337b90614e50565b60405180910390fd5b818103603360008673ffffffffffffffffffffffffffffffffffffffff1673ffffffffffffffffffffffffffffffffffffffff1681526020019081526020016000208190555081603360008573ffffffffffffffffffffffffffffffffffffffff1673ffffffffffffffffffffffffffffffffffffffff168152602001908152602001600020600082825401925050819055508273ffffffffffffffffffffffffffffffffffffffff168473ffffffffffffffffffffffffffffffffffffffff167fddf252ad1be2c89b69c2b068fc378daa952ba7f163c4a11628f55a4df523b3ef846040516134749190613d67565b60405180910390a36134878484846137d9565b50505050565b600073ffffffffffffffffffffffffffffffffffffffff168273ffffffffffffffffffffffffffffffffffffffff16036134fc576040517f08c379a00000000000000000000000000000000000000000000000000000000081526004016134f390614ebc565b60405180910390fd5b613508600083836137d4565b806035600082825461351a91906140cf565b9250508190555080603360008473ffffffffffffffffffffffffffffffffffffffff1673ffffffffffffffffffffffffffffffffffffffff168152602001908152602001600020600082825401925050819055508173ffffffffffffffffffffffffffffffffffffffff16600073ffffffffffffffffffffffffffffffffffffffff167fddf252ad1be2c89b69c2b068fc378daa952ba7f163c4a11628f55a4df523b3ef836040516135cc9190613d67565b60405180910390a36135e0600083836137d9565b5050565b6000609760009054906101000a900473ffffffffffffffffffffffffffffffffffffffff16905081609760006101000a81548173ffffffffffffffffffffffffffffffffffffffff021916908373ffffffffffffffffffffffffffffffffffffffff1602179055508173ffffffffffffffffffffffffffffffffffffffff168173ffffffffffffffffffffffffffffffffffffffff167f8be0079c531659141344cd1fd0a4f28419497f9722a3daafe3b4186f6b6457e060405160405180910390a35050565b6000808273ffffffffffffffffffffffffffffffffffffffff163b119050919050565b600060019054906101000a900460ff1661371c576040517f08c379a000000000000000000000000000000000000000000000000000000000815260040161371390614f4e565b60405180910390fd5b61372682826137de565b5050565b600060019054906101000a900460ff16613779576040517f08c379a000000000000000000000000000000000000000000000000000000000815260040161377090614f4e565b60405180910390fd5b565b600060019054906101000a900460ff166137ca576040517f08c379a00000000000000000000000000000000000000000000000000000000081526004016137c190614f4e565b60405180910390fd5b6137d2613851565b565b505050565b505050565b600060019054906101000a900460ff1661382d576040517f08c379a000000000000000000000000000000000000000000000000000000000815260040161382490614f4e565b60405180910390fd5b816036908161383c9190615110565b50806037908161384c9190615110565b505050565b600060019054906101000a900460ff166138a0576040517f08c379a000000000000000000000000000000000000000000000000000000000815260040161389790614f4e565b60405180910390fd5b6138b06138ab612d6a565b6135e4565b565b600081519050919050565b600082825260208201905092915050565b60005b838110156138ec5780820151818401526020810190506138d1565b60008484015250505050565b6000601f19601f8301169050919050565b6000613914826138b2565b61391e81856138bd565b935061392e8185602086016138ce565b613937816138f8565b840191505092915050565b6000602082019050818103600083015261395c8184613909565b905092915050565b6000604051905090565b600080fd5b600080fd5b600073ffffffffffffffffffffffffffffffffffffffff82169050919050565b60006139a382613978565b9050919050565b6139b381613998565b81146139be57600080fd5b50565b6000813590506139d0816139aa565b92915050565b600080fd5b7f4e487b7100000000000000000000000000000000000000000000000000000000600052604160045260246000fd5b613a13826138f8565b810181811067ffffffffffffffff82111715613a3257613a316139db565b5b80604052505050565b6000613a45613964565b9050613a518282613a0a565b919050565b600067ffffffffffffffff821115613a7157613a706139db565b5b602082029050602081019050919050565b600080fd5b6000613a9a613a9584613a56565b613a3b565b90508083825260208201905060208402830185811115613abd57613abc613a82565b5b835b81811015613ae65780613ad288826139c1565b845260208401935050602081019050613abf565b5050509392505050565b600082601f830112613b0557613b046139d6565b5b8135613b15848260208601613a87565b91505092915050565b600067ffffffffffffffff821115613b3957613b386139db565b5b602082029050602081019050919050565b6000819050919050565b613b5d81613b4a565b8114613b6857600080fd5b50565b600081359050613b7a81613b54565b92915050565b6000613b93613b8e84613b1e565b613a3b565b90508083825260208201905060208402830185811115613bb657613bb5613a82565b5b835b81811015613bdf5780613bcb8882613b6b565b845260208401935050602081019050613bb8565b5050509392505050565b600082601f830112613bfe57613bfd6139d6565b5b8135613c0e848260208601613b80565b91505092915050565b600080600060608486031215613c3057613c2f61396e565b5b6000613c3e868287016139c1565b935050602084013567ffffffffffffffff811115613c5f57613c5e613973565b5b613c6b86828701613af0565b925050604084013567ffffffffffffffff811115613c8c57613c8b613973565b5b613c9886828701613be9565b9150509250925092565b60008060408385031215613cb957613cb861396e565b5b6000613cc7858286016139c1565b9250506020613cd885828601613b6b565b9150509250929050565b60008115159050919050565b613cf781613ce2565b82525050565b6000602082019050613d126000830184613cee565b92915050565b60008060408385031215613d2f57613d2e61396e565b5b6000613d3d858286016139c1565b9250506020613d4e858286016139c1565b9150509250929050565b613d6181613b4a565b82525050565b6000602082019050613d7c6000830184613d58565b92915050565b600060208284031215613d9857613d9761396e565b5b6000613da6848285016139c1565b91505092915050565b600080600060608486031215613dc857613dc761396e565b5b6000613dd6868287016139c1565b9350506020613de7868287016139c1565b9250506040613df886828701613b6b565b9150509250925092565b600060208284031215613e1857613e1761396e565b5b6000613e2684828501613b6b565b91505092915050565b600060ff82169050919050565b613e4581613e2f565b82525050565b6000602082019050613e606000830184613e3c565b92915050565b60008060408385031215613e7d57613e7c61396e565b5b600083013567ffffffffffffffff811115613e9b57613e9a613973565b5b613ea785828601613af0565b925050602083013567ffffffffffffffff811115613ec857613ec7613973565b5b613ed485828601613be9565b9150509250929050565b60008060008060808587031215613ef857613ef761396e565b5b6000613f06878288016139c1565b9450506020613f1787828801613b6b565b935050604085013567ffffffffffffffff811115613f3857613f37613973565b5b613f4487828801613af0565b925050606085013567ffffffffffffffff811115613f6557613f64613973565b5b613f7187828801613be9565b91505092959194509250565b613f8681613998565b82525050565b6000602082019050613fa16000830184613f7d565b92915050565b60008060008060808587031215613fc157613fc061396e565b5b6000613fcf878288016139c1565b9450506020613fe087828801613b6b565b9350506040613ff1878288016139c1565b925050606061400287828801613b6b565b91505092959194509250565b7f4465706f7369742076616c7565206d757374206265206772656174657220746860008201527f616e207a65726f00000000000000000000000000000000000000000000000000602082015250565b600061406a6027836138bd565b91506140758261400e565b604082019050919050565b600060208201905081810360008301526140998161405d565b9050919050565b7f4e487b7100000000000000000000000000000000000000000000000000000000600052601160045260246000fd5b60006140da82613b4a565b91506140e583613b4a565b92508282019050808211156140fd576140fc6140a0565b5b92915050565b7f4e487b7100000000000000000000000000000000000000000000000000000000600052602260045260246000fd5b6000600282049050600182168061414a57607f821691505b60208210810361415d5761415c614103565b5b50919050565b7f496e76616c696420696e707574206c656e677468000000000000000000000000600082015250565b60006141996014836138bd565b91506141a482614163565b602082019050919050565b600060208201905081810360008301526141c88161418c565b9050919050565b7f4e487b7100000000000000000000000000000000000000000000000000000000600052603260045260246000fd5b600061420982613b4a565b91507fffffffffffffffffffffffffffffffffffffffffffffffffffffffffffffffff820361423b5761423a6140a0565b5b600182019050919050565b7f496e76616c696420746970206164647265737300000000000000000000000000600082015250565b600061427c6013836138bd565b915061428782614246565b602082019050919050565b600060208201905081810360008301526142ab8161426f565b9050919050565b7f496e76616c69642074697020616d6f756e740000000000000000000000000000600082015250565b60006142e86012836138bd565b91506142f3826142b2565b602082019050919050565b60006020820190508181036000830152614317816142db565b9050919050565b600061432982613b4a565b915061433483613b4a565b925082820261434281613b4a565b91508282048414831517614359576143586140a0565b5b5092915050565b7f4e487b7100000000000000000000000000000000000000000000000000000000600052601260045260246000fd5b600061439a82613b4a565b91506143a583613b4a565b9250826143b5576143b4614360565b5b828204905092915050565b60006143cb82613b4a565b91506143d683613b4a565b92508282039050818111156143ee576143ed6140a0565b5b92915050565b60006040820190506144096000830185613d58565b6144166020830184613d58565b9392505050565b7f4e6f206665652062616c616e636520746f207769746864726177000000000000600082015250565b6000614453601a836138bd565b915061445e8261441d565b602082019050919050565b6000602082019050818103600083015261448281614446565b9050919050565b7f496e76616c696420776974686472617720616d6f756e74000000000000000000600082015250565b60006144bf6017836138bd565b91506144ca82614489565b602082019050919050565b600060208201905081810360008301526144ee816144b2565b9050919050565b7f496e76616c6964207769746864726177616c20616d6f756e7400000000000000600082015250565b600061452b6019836138bd565b9150614536826144f5565b602082019050919050565b6000602082019050818103600083015261455a8161451e565b9050919050565b7f4665652070657263656e746167652063616e6e6f74206578636565642031303060008201527f2500000000000000000000000000000000000000000000000000000000000000602082015250565b60006145bd6021836138bd565b91506145c882614561565b604082019050919050565b600060208201905081810360008301526145ec816145b0565b9050919050565b7f496e697469616c697a61626c653a20636f6e747261637420697320616c72656160008201527f647920696e697469616c697a6564000000000000000000000000000000000000602082015250565b600061464f602e836138bd565b915061465a826145f3565b604082019050919050565b6000602082019050818103600083015261467e81614642565b9050919050565b6000819050919050565b6000819050919050565b60006146b46146af6146aa84614685565b61468f565b613e2f565b9050919050565b6146c481614699565b82525050565b60006020820190506146df60008301846146bb565b92915050565b60006040820190506146fa6000830185613f7d565b6147076020830184613d58565b9392505050565b61471781613ce2565b811461472257600080fd5b50565b6000815190506147348161470e565b92915050565b6000602082840312156147505761474f61396e565b5b600061475e84828501614725565b91505092915050565b7f546f6b656e207472616e73666572206661696c65640000000000000000000000600082015250565b600061479d6015836138bd565b91506147a882614767565b602082019050919050565b600060208201905081810360008301526147cc81614790565b9050919050565b60006060820190506147e86000830186613f7d565b6147f56020830185613f7d565b6148026040830184613d58565b949350505050565b7f45524332303a2064656372656173656420616c6c6f77616e63652062656c6f7760008201527f207a65726f000000000000000000000000000000000000000000000000000000602082015250565b60006148666025836138bd565b91506148718261480a565b604082019050919050565b6000602082019050818103600083015261489581614859565b9050919050565b7f496e76616c696420696e70757420616464726573730000000000000000000000600082015250565b60006148d26015836138bd565b91506148dd8261489c565b602082019050919050565b60006020820190508181036000830152614901816148c5565b9050919050565b7f4f776e61626c653a206e6577206f776e657220697320746865207a65726f206160008201527f6464726573730000000000000000000000000000000000000000000000000000602082015250565b60006149646026836138bd565b915061496f82614908565b604082019050919050565b6000602082019050818103600083015261499381614957565b9050919050565b7f45524332303a20617070726f76652066726f6d20746865207a65726f2061646460008201527f7265737300000000000000000000000000000000000000000000000000000000602082015250565b60006149f66024836138bd565b9150614a018261499a565b604082019050919050565b60006020820190508181036000830152614a25816149e9565b9050919050565b7f45524332303a20617070726f766520746f20746865207a65726f20616464726560008201527f7373000000000000000000000000000000000000000000000000000000000000602082015250565b6000614a886022836138bd565b9150614a9382614a2c565b604082019050919050565b60006020820190508181036000830152614ab781614a7b565b9050919050565b7f4f776e61626c653a2063616c6c6572206973206e6f7420746865206f776e6572600082015250565b6000614af46020836138bd565b9150614aff82614abe565b602082019050919050565b60006020820190508181036000830152614b2381614ae7565b9050919050565b7f45524332303a206275726e2066726f6d20746865207a65726f2061646472657360008201527f7300000000000000000000000000000000000000000000000000000000000000602082015250565b6000614b866021836138bd565b9150614b9182614b2a565b604082019050919050565b60006020820190508181036000830152614bb581614b79565b9050919050565b7f45524332303a206275726e20616d6f756e7420657863656564732062616c616e60008201527f6365000000000000000000000000000000000000000000000000000000000000602082015250565b6000614c186022836138bd565b9150614c2382614bbc565b604082019050919050565b60006020820190508181036000830152614c4781614c0b565b9050919050565b7f45524332303a20696e73756666696369656e7420616c6c6f77616e6365000000600082015250565b6000614c84601d836138bd565b9150614c8f82614c4e565b602082019050919050565b60006020820190508181036000830152614cb381614c77565b9050919050565b7f45524332303a207472616e736665722066726f6d20746865207a65726f20616460008201527f6472657373000000000000000000000000000000000000000000000000000000602082015250565b6000614d166025836138bd565b9150614d2182614cba565b604082019050919050565b60006020820190508181036000830152614d4581614d09565b9050919050565b7f45524332303a207472616e7366657220746f20746865207a65726f206164647260008201527f6573730000000000000000000000000000000000000000000000000000000000602082015250565b6000614da86023836138bd565b9150614db382614d4c565b604082019050919050565b60006020820190508181036000830152614dd781614d9b565b9050919050565b7f45524332303a207472616e7366657220616d6f756e742065786365656473206260008201527f616c616e63650000000000000000000000000000000000000000000000000000602082015250565b6000614e3a6026836138bd565b9150614e4582614dde565b604082019050919050565b60006020820190508181036000830152614e6981614e2d565b9050919050565b7f45524332303a206d696e7420746f20746865207a65726f206164647265737300600082015250565b6000614ea6601f836138bd565b9150614eb182614e70565b602082019050919050565b60006020820190508181036000830152614ed581614e99565b9050919050565b7f496e697469616c697a61626c653a20636f6e7472616374206973206e6f74206960008201527f6e697469616c697a696e67000000000000000000000000000000000000000000602082015250565b6000614f38602b836138bd565b9150614f4382614edc565b604082019050919050565b60006020820190508181036000830152614f6781614f2b565b9050919050565b60008190508160005260206000209050919050565b60006020601f8301049050919050565b600082821b905092915050565b600060088302614fd07fffffffffffffffffffffffffffffffffffffffffffffffffffffffffffffffff82614f93565b614fda8683614f93565b95508019841693508086168417925050509392505050565b600061500d61500861500384613b4a565b61468f565b613b4a565b9050919050565b6000819050919050565b61502783614ff2565b61503b61503382615014565b848454614fa0565b825550505050565b600090565b615050615043565b61505b81848461501e565b505050565b5b8181101561507f57615074600082615048565b600181019050615061565b5050565b601f8211156150c45761509581614f6e565b61509e84614f83565b810160208510156150ad578190505b6150c16150b985614f83565b830182615060565b50505b505050565b600082821c905092915050565b60006150e7600019846008026150c9565b1980831691505092915050565b600061510083836150d6565b9150826002028217905092915050565b615119826138b2565b67ffffffffffffffff811115615132576151316139db565b5b61513c8254614132565b615147828285615083565b600060209050601f83116001811461517a5760008415615168578287015190505b61517285826150f4565b8655506151da565b601f19841661518886614f6e565b60005b828110156151b05784890151825560018201915060208501945060208101905061518b565b868310156151cd57848901516151c9601f8916826150d6565b8355505b6001600288020188555050505b50505050505056fea2646970667358221220ca44107926b99034d981626ec301b502732341142b47c35fc31701c6aee2422164736f6c63430008130033",
  "linkReferences": {},
  "deployedLinkReferences": {}
}